{"@account-abstraction/contracts/core/SenderCreator.sol":{"SenderCreator":{"abi":[{"inputs":[],"stateMutability":"nonpayable","type":"constructor"},{"inputs":[{"internalType":"uint256","name":"opIndex","type":"uint256"},{"internalType":"string","name":"reason","type":"string"},{"internalType":"bytes","name":"inner","type":"bytes"}],"name":"FailedOpWithRevert","type":"error"},{"inputs":[{"internalType":"bytes","name":"initCode","type":"bytes"}],"name":"createSender","outputs":[{"internalType":"address","name":"sender","type":"address"}],"stateMutability":"nonpayable","type":"function"},{"inputs":[],"name":"entryPoint","outputs":[{"internalType":"address","name":"","type":"address"}],"stateMutability":"view","type":"function"},{"inputs":[{"internalType":"address","name":"sender","type":"address"},{"internalType":"bytes","name":"initCallData","type":"bytes"}],"name":"initEip7702Sender","outputs":[],"stateMutability":"nonpayable","type":"function"}],"evm":{"bytecode":{"linkReferences":{},"object":"60a0604052348015600e575f5ffd5b50336080526080516104ca6100375f395f818160770152818160ba015261019001526104ca5ff3fe608060405234801561000f575f5ffd5b506004361061003f575f3560e01c8063570e1a3614610043578063b0d691fe14610072578063c09ad0d914610099575b5f5ffd5b610056610051366004610242565b6100ae565b6040516001600160a01b03909116815260200160405180910390f35b6100567f000000000000000000000000000000000000000000000000000000000000000081565b6100ac6100a73660046102c2565b610185565b005b5f336001600160a01b037f000000000000000000000000000000000000000000000000000000000000000016146101005760405162461bcd60e51b81526004016100f790610390565b60405180910390fd5b5f61010e60148285876103c5565b610117916103ec565b60601c90505f61012a84601481886103c5565b8080601f0160208091040260200160405190810160405280939291908181526020018383808284375f92018290525084519495509360209350849250905082850182875af19050801561017c575f5193505b50505092915050565b336001600160a01b037f000000000000000000000000000000000000000000000000000000000000000016146101cd5760405162461bcd60e51b81526004016100f790610390565b5f5f5f8351602085015f875af190508061020c575f6101ed610800610211565b90505f816040516365c8fd4d60e01b81526004016100f7929190610424565b505050565b60603d821561022557828111156102255750815b604051602082018101604052818152815f602083013e9392505050565b5f5f60208385031215610253575f5ffd5b82356001600160401b03811115610268575f5ffd5b8301601f81018513610278575f5ffd5b80356001600160401b0381111561028d575f5ffd5b85602082840101111561029e575f5ffd5b6020919091019590945092505050565b634e487b7160e01b5f52604160045260245ffd5b5f5f604083850312156102d3575f5ffd5b82356001600160a01b03811681146102e9575f5ffd5b915060208301356001600160401b03811115610303575f5ffd5b8301601f81018513610313575f5ffd5b80356001600160401b0381111561032c5761032c6102ae565b604051601f8201601f19908116603f011681016001600160401b038111828210171561035a5761035a6102ae565b604052818152828201602001871015610371575f5ffd5b816020840160208301375f602083830101528093505050509250929050565b6020808252818101527f414139372073686f756c642063616c6c2066726f6d20456e747279506f696e74604082015260600190565b5f5f858511156103d3575f5ffd5b838611156103df575f5ffd5b5050820193919092039150565b80356001600160601b0319811690601484101561041d576001600160601b0319601485900360031b81901b82161691505b5092915050565b82815260606020820152601f60608201527f4141313320454950373730322073656e64657220696e6974206661696c656400608082015260a060408201525f82518060a0840152806020850160c085015e5f60c0828501015260c0601f19601f830116840101915050939250505056fea26469706673582212208686f5490393e4543115f880163d4f3283a52e82b66e2a4ddd2840a34f36d5e364736f6c634300081c0033","opcodes":"PUSH1 0xA0 PUSH1 0x40 MSTORE CALLVALUE DUP1 ISZERO PUSH1 0xE JUMPI PUSH0 PUSH0 REVERT JUMPDEST POP CALLER PUSH1 0x80 MSTORE PUSH1 0x80 MLOAD PUSH2 0x4CA PUSH2 0x37 PUSH0 CODECOPY PUSH0 DUP2 DUP2 PUSH1 0x77 ADD MSTORE DUP2 DUP2 PUSH1 0xBA ADD MSTORE PUSH2 0x190 ADD MSTORE PUSH2 0x4CA PUSH0 RETURN INVALID PUSH1 0x80 PUSH1 0x40 MSTORE CALLVALUE DUP1 ISZERO PUSH2 0xF JUMPI PUSH0 PUSH0 REVERT JUMPDEST POP PUSH1 0x4 CALLDATASIZE LT PUSH2 0x3F JUMPI PUSH0 CALLDATALOAD PUSH1 0xE0 SHR DUP1 PUSH4 0x570E1A36 EQ PUSH2 0x43 JUMPI DUP1 PUSH4 0xB0D691FE EQ PUSH2 0x72 JUMPI DUP1 PUSH4 0xC09AD0D9 EQ PUSH2 0x99 JUMPI JUMPDEST PUSH0 PUSH0 REVERT JUMPDEST PUSH2 0x56 PUSH2 0x51 CALLDATASIZE PUSH1 0x4 PUSH2 0x242 JUMP JUMPDEST PUSH2 0xAE JUMP JUMPDEST PUSH1 0x40 MLOAD PUSH1 0x1 PUSH1 0x1 PUSH1 0xA0 SHL SUB SWAP1 SWAP2 AND DUP2 MSTORE PUSH1 0x20 ADD PUSH1 0x40 MLOAD DUP1 SWAP2 SUB SWAP1 RETURN JUMPDEST PUSH2 0x56 PUSH32 0x0 DUP2 JUMP JUMPDEST PUSH2 0xAC PUSH2 0xA7 CALLDATASIZE PUSH1 0x4 PUSH2 0x2C2 JUMP JUMPDEST PUSH2 0x185 JUMP JUMPDEST STOP JUMPDEST PUSH0 CALLER PUSH1 0x1 PUSH1 0x1 PUSH1 0xA0 SHL SUB PUSH32 0x0 AND EQ PUSH2 0x100 JUMPI PUSH1 0x40 MLOAD PUSH3 0x461BCD PUSH1 0xE5 SHL DUP2 MSTORE PUSH1 0x4 ADD PUSH2 0xF7 SWAP1 PUSH2 0x390 JUMP JUMPDEST PUSH1 0x40 MLOAD DUP1 SWAP2 SUB SWAP1 REVERT JUMPDEST PUSH0 PUSH2 0x10E PUSH1 0x14 DUP3 DUP6 DUP8 PUSH2 0x3C5 JUMP JUMPDEST PUSH2 0x117 SWAP2 PUSH2 0x3EC JUMP JUMPDEST PUSH1 0x60 SHR SWAP1 POP PUSH0 PUSH2 0x12A DUP5 PUSH1 0x14 DUP2 DUP9 PUSH2 0x3C5 JUMP JUMPDEST DUP1 DUP1 PUSH1 0x1F ADD PUSH1 0x20 DUP1 SWAP2 DIV MUL PUSH1 0x20 ADD PUSH1 0x40 MLOAD SWAP1 DUP2 ADD PUSH1 0x40 MSTORE DUP1 SWAP4 SWAP3 SWAP2 SWAP1 DUP2 DUP2 MSTORE PUSH1 0x20 ADD DUP4 DUP4 DUP1 DUP3 DUP5 CALLDATACOPY PUSH0 SWAP3 ADD DUP3 SWAP1 MSTORE POP DUP5 MLOAD SWAP5 SWAP6 POP SWAP4 PUSH1 0x20 SWAP4 POP DUP5 SWAP3 POP SWAP1 POP DUP3 DUP6 ADD DUP3 DUP8 GAS CALL SWAP1 POP DUP1 ISZERO PUSH2 0x17C JUMPI PUSH0 MLOAD SWAP4 POP JUMPDEST POP POP POP SWAP3 SWAP2 POP POP JUMP JUMPDEST CALLER PUSH1 0x1 PUSH1 0x1 PUSH1 0xA0 SHL SUB PUSH32 0x0 AND EQ PUSH2 0x1CD JUMPI PUSH1 0x40 MLOAD PUSH3 0x461BCD PUSH1 0xE5 SHL DUP2 MSTORE PUSH1 0x4 ADD PUSH2 0xF7 SWAP1 PUSH2 0x390 JUMP JUMPDEST PUSH0 PUSH0 PUSH0 DUP4 MLOAD PUSH1 0x20 DUP6 ADD PUSH0 DUP8 GAS CALL SWAP1 POP DUP1 PUSH2 0x20C JUMPI PUSH0 PUSH2 0x1ED PUSH2 0x800 PUSH2 0x211 JUMP JUMPDEST SWAP1 POP PUSH0 DUP2 PUSH1 0x40 MLOAD PUSH4 0x65C8FD4D PUSH1 0xE0 SHL DUP2 MSTORE PUSH1 0x4 ADD PUSH2 0xF7 SWAP3 SWAP2 SWAP1 PUSH2 0x424 JUMP JUMPDEST POP POP POP JUMP JUMPDEST PUSH1 0x60 RETURNDATASIZE DUP3 ISZERO PUSH2 0x225 JUMPI DUP3 DUP2 GT ISZERO PUSH2 0x225 JUMPI POP DUP2 JUMPDEST PUSH1 0x40 MLOAD PUSH1 0x20 DUP3 ADD DUP2 ADD PUSH1 0x40 MSTORE DUP2 DUP2 MSTORE DUP2 PUSH0 PUSH1 0x20 DUP4 ADD RETURNDATACOPY SWAP4 SWAP3 POP POP POP JUMP JUMPDEST PUSH0 PUSH0 PUSH1 0x20 DUP4 DUP6 SUB SLT ISZERO PUSH2 0x253 JUMPI PUSH0 PUSH0 REVERT JUMPDEST DUP3 CALLDATALOAD PUSH1 0x1 PUSH1 0x1 PUSH1 0x40 SHL SUB DUP2 GT ISZERO PUSH2 0x268 JUMPI PUSH0 PUSH0 REVERT JUMPDEST DUP4 ADD PUSH1 0x1F DUP2 ADD DUP6 SGT PUSH2 0x278 JUMPI PUSH0 PUSH0 REVERT JUMPDEST DUP1 CALLDATALOAD PUSH1 0x1 PUSH1 0x1 PUSH1 0x40 SHL SUB DUP2 GT ISZERO PUSH2 0x28D JUMPI PUSH0 PUSH0 REVERT JUMPDEST DUP6 PUSH1 0x20 DUP3 DUP5 ADD ADD GT ISZERO PUSH2 0x29E JUMPI PUSH0 PUSH0 REVERT JUMPDEST PUSH1 0x20 SWAP2 SWAP1 SWAP2 ADD SWAP6 SWAP1 SWAP5 POP SWAP3 POP POP POP JUMP JUMPDEST PUSH4 0x4E487B71 PUSH1 0xE0 SHL PUSH0 MSTORE PUSH1 0x41 PUSH1 0x4 MSTORE PUSH1 0x24 PUSH0 REVERT JUMPDEST PUSH0 PUSH0 PUSH1 0x40 DUP4 DUP6 SUB SLT ISZERO PUSH2 0x2D3 JUMPI PUSH0 PUSH0 REVERT JUMPDEST DUP3 CALLDATALOAD PUSH1 0x1 PUSH1 0x1 PUSH1 0xA0 SHL SUB DUP2 AND DUP2 EQ PUSH2 0x2E9 JUMPI PUSH0 PUSH0 REVERT JUMPDEST SWAP2 POP PUSH1 0x20 DUP4 ADD CALLDATALOAD PUSH1 0x1 PUSH1 0x1 PUSH1 0x40 SHL SUB DUP2 GT ISZERO PUSH2 0x303 JUMPI PUSH0 PUSH0 REVERT JUMPDEST DUP4 ADD PUSH1 0x1F DUP2 ADD DUP6 SGT PUSH2 0x313 JUMPI PUSH0 PUSH0 REVERT JUMPDEST DUP1 CALLDATALOAD PUSH1 0x1 PUSH1 0x1 PUSH1 0x40 SHL SUB DUP2 GT ISZERO PUSH2 0x32C JUMPI PUSH2 0x32C PUSH2 0x2AE JUMP JUMPDEST PUSH1 0x40 MLOAD PUSH1 0x1F DUP3 ADD PUSH1 0x1F NOT SWAP1 DUP2 AND PUSH1 0x3F ADD AND DUP2 ADD PUSH1 0x1 PUSH1 0x1 PUSH1 0x40 SHL SUB DUP2 GT DUP3 DUP3 LT OR ISZERO PUSH2 0x35A JUMPI PUSH2 0x35A PUSH2 0x2AE JUMP JUMPDEST PUSH1 0x40 MSTORE DUP2 DUP2 MSTORE DUP3 DUP3 ADD PUSH1 0x20 ADD DUP8 LT ISZERO PUSH2 0x371 JUMPI PUSH0 PUSH0 REVERT JUMPDEST DUP2 PUSH1 0x20 DUP5 ADD PUSH1 0x20 DUP4 ADD CALLDATACOPY PUSH0 PUSH1 0x20 DUP4 DUP4 ADD ADD MSTORE DUP1 SWAP4 POP POP POP POP SWAP3 POP SWAP3 SWAP1 POP JUMP JUMPDEST PUSH1 0x20 DUP1 DUP3 MSTORE DUP2 DUP2 ADD MSTORE PUSH32 0x414139372073686F756C642063616C6C2066726F6D20456E747279506F696E74 PUSH1 0x40 DUP3 ADD MSTORE PUSH1 0x60 ADD SWAP1 JUMP JUMPDEST PUSH0 PUSH0 DUP6 DUP6 GT ISZERO PUSH2 0x3D3 JUMPI PUSH0 PUSH0 REVERT JUMPDEST DUP4 DUP7 GT ISZERO PUSH2 0x3DF JUMPI PUSH0 PUSH0 REVERT JUMPDEST POP POP DUP3 ADD SWAP4 SWAP2 SWAP1 SWAP3 SUB SWAP2 POP JUMP JUMPDEST DUP1 CALLDATALOAD PUSH1 0x1 PUSH1 0x1 PUSH1 0x60 SHL SUB NOT DUP2 AND SWAP1 PUSH1 0x14 DUP5 LT ISZERO PUSH2 0x41D JUMPI PUSH1 0x1 PUSH1 0x1 PUSH1 0x60 SHL SUB NOT PUSH1 0x14 DUP6 SWAP1 SUB PUSH1 0x3 SHL DUP2 SWAP1 SHL DUP3 AND AND SWAP2 POP JUMPDEST POP SWAP3 SWAP2 POP POP JUMP JUMPDEST DUP3 DUP2 MSTORE PUSH1 0x60 PUSH1 0x20 DUP3 ADD MSTORE PUSH1 0x1F PUSH1 0x60 DUP3 ADD MSTORE PUSH32 0x4141313320454950373730322073656E64657220696E6974206661696C656400 PUSH1 0x80 DUP3 ADD MSTORE PUSH1 0xA0 PUSH1 0x40 DUP3 ADD MSTORE PUSH0 DUP3 MLOAD DUP1 PUSH1 0xA0 DUP5 ADD MSTORE DUP1 PUSH1 0x20 DUP6 ADD PUSH1 0xC0 DUP6 ADD MCOPY PUSH0 PUSH1 0xC0 DUP3 DUP6 ADD ADD MSTORE PUSH1 0xC0 PUSH1 0x1F NOT PUSH1 0x1F DUP4 ADD AND DUP5 ADD ADD SWAP2 POP POP SWAP4 SWAP3 POP POP POP JUMP INVALID LOG2 PUSH5 0x6970667358 0x22 SLT KECCAK256 DUP7 DUP7 CREATE2 BLOBHASH SUB SWAP4 0xE4 SLOAD BALANCE ISZERO 0xF8 DUP1 AND RETURNDATASIZE 0x4F ORIGIN DUP4 0xA5 0x2E DUP3 0xB6 PUSH15 0x2A4DDD2840A34F36D5E364736F6C63 NUMBER STOP ADDMOD SHR STOP CALLER "},"methodIdentifiers":{"createSender(bytes)":"570e1a36","entryPoint()":"b0d691fe","initEip7702Sender(address,bytes)":"c09ad0d9"}}}}}