{"@account-abstraction/contracts/core/UserOperationLib.sol":{"UserOperationLib":{"abi":[{"inputs":[],"name":"PAYMASTER_DATA_OFFSET","outputs":[{"internalType":"uint256","name":"","type":"uint256"}],"stateMutability":"view","type":"function"},{"inputs":[],"name":"PAYMASTER_POSTOP_GAS_OFFSET","outputs":[{"internalType":"uint256","name":"","type":"uint256"}],"stateMutability":"view","type":"function"},{"inputs":[],"name":"PAYMASTER_VALIDATION_GAS_OFFSET","outputs":[{"internalType":"uint256","name":"","type":"uint256"}],"stateMutability":"view","type":"function"}],"evm":{"bytecode":{"linkReferences":{},"object":"60a76032600b8282823980515f1a607314602657634e487b7160e01b5f525f60045260245ffd5b305f52607381538281f3fe73000000000000000000000000000000000000000030146080604052600436106046575f3560e01c806325093e1b14604a578063b29a8ff4146063578063ede3150214606a575b5f5ffd5b6051602481565b60405190815260200160405180910390f35b6051601481565b605160348156fea2646970667358221220cc7c473c861be419b7e87499173d8cadee529a973666bfc4bba3a9dedef90bf764736f6c634300081c0033","opcodes":"PUSH1 0xA7 PUSH1 0x32 PUSH1 0xB DUP3 DUP3 DUP3 CODECOPY DUP1 MLOAD PUSH0 BYTE PUSH1 0x73 EQ PUSH1 0x26 JUMPI PUSH4 0x4E487B71 PUSH1 0xE0 SHL PUSH0 MSTORE PUSH0 PUSH1 0x4 MSTORE PUSH1 0x24 PUSH0 REVERT JUMPDEST ADDRESS PUSH0 MSTORE PUSH1 0x73 DUP2 MSTORE8 DUP3 DUP2 RETURN INVALID PUSH20 0x0 ADDRESS EQ PUSH1 0x80 PUSH1 0x40 MSTORE PUSH1 0x4 CALLDATASIZE LT PUSH1 0x46 JUMPI PUSH0 CALLDATALOAD PUSH1 0xE0 SHR DUP1 PUSH4 0x25093E1B EQ PUSH1 0x4A JUMPI DUP1 PUSH4 0xB29A8FF4 EQ PUSH1 0x63 JUMPI DUP1 PUSH4 0xEDE31502 EQ PUSH1 0x6A JUMPI JUMPDEST PUSH0 PUSH0 REVERT JUMPDEST PUSH1 0x51 PUSH1 0x24 DUP2 JUMP JUMPDEST PUSH1 0x40 MLOAD SWAP1 DUP2 MSTORE PUSH1 0x20 ADD PUSH1 0x40 MLOAD DUP1 SWAP2 SUB SWAP1 RETURN JUMPDEST PUSH1 0x51 PUSH1 0x14 DUP2 JUMP JUMPDEST PUSH1 0x51 PUSH1 0x34 DUP2 JUMP INVALID LOG2 PUSH5 0x6970667358 0x22 SLT KECCAK256 0xCC PUSH29 0x473C861BE419B7E87499173D8CADEE529A973666BFC4BBA3A9DEDEF90B 0xF7 PUSH5 0x736F6C6343 STOP ADDMOD SHR STOP CALLER "},"methodIdentifiers":{"PAYMASTER_DATA_OFFSET()":"ede31502","PAYMASTER_POSTOP_GAS_OFFSET()":"25093e1b","PAYMASTER_VALIDATION_GAS_OFFSET()":"b29a8ff4"}}}}}