{"contracts/Account.sol":{"AccountFactory2":{"abi":[{"inputs":[{"internalType":"address","name":"entryPoint","type":"address"}],"stateMutability":"nonpayable","type":"constructor"},{"inputs":[],"name":"_entryPoint","outputs":[{"internalType":"address","name":"","type":"address"}],"stateMutability":"view","type":"function"},{"inputs":[{"internalType":"address","name":"_owner","type":"address"},{"internalType":"uint256","name":"_salt","type":"uint256"}],"name":"createAccount","outputs":[{"internalType":"address","name":"","type":"address"}],"stateMutability":"nonpayable","type":"function"},{"inputs":[{"internalType":"address","name":"owner","type":"address"},{"internalType":"uint256","name":"salt","type":"uint256"}],"name":"getAddress","outputs":[{"internalType":"address","name":"predicted","type":"address"}],"stateMutability":"view","type":"function"}],"evm":{"bytecode":{"linkReferences":{},"object":"60a0604052348015600e575f5ffd5b50604051610768380380610768833981016040819052602b91603b565b6001600160a01b03166080526066565b5f60208284031215604a575f5ffd5b81516001600160a01b0381168114605f575f5ffd5b9392505050565b6080516106de61008a5f395f8181608a0152818160b4015261013f01526106de5ff3fe608060405234801561000f575f5ffd5b506004361061003f575f3560e01c80635fbfb9cf146100435780638cb84e1814610072578063b3080c2414610085575b5f5ffd5b6100566100513660046101fb565b6100ac565b6040516001600160a01b03909116815260200160405180910390f35b6100566100803660046101fb565b610110565b6100567f000000000000000000000000000000000000000000000000000000000000000081565b5f5f825f1b847f00000000000000000000000000000000000000000000000000000000000000006040516100df906101ee565b6100ea929190610230565b8190604051809103905ff5905080158015610107573d5f5f3e3d5ffd5b50949350505050565b5f5f60405180602001610122906101ee565b601f1982820381018352601f9091011660408190526101679086907f000000000000000000000000000000000000000000000000000000000000000090602001610230565b60408051601f19818403018152908290526101859291602001610261565b60408051808303601f1901815282825280516020918201206001600160f81b0319828501523060601b6001600160601b03191660218501526035840196909652605580840196909652815180840390960186526075909201905283519301929092209392505050565b61042b8061027e83390190565b5f5f6040838503121561020c575f5ffd5b82356001600160a01b0381168114610222575f5ffd5b946020939093013593505050565b6001600160a01b0392831681529116602082015260400190565b5f81518060208401855e5f93019283525090919050565b5f61027561026f838661024a565b8461024a565b94935050505056fe60c060405234801561000f575f5ffd5b5060405161042b38038061042b83398101604081905261002e91610060565b6001600160a01b039182166080521660a052610091565b80516001600160a01b038116811461005b575f5ffd5b919050565b5f5f60408385031215610071575f5ffd5b61007a83610045565b915061008860208401610045565b90509250929050565b60805160a0516103656100c65f395f818161010401528181610132015281816101b6015261023001525f60c401526103655ff3fe60806040526004361061004c575f3560e01c806306661abd1461005757806319822f7c1461007e578063614619541461009d5780638da5cb5b146100b3578063b0d691fe146100f3575f5ffd5b3661005357005b5f5ffd5b348015610062575f5ffd5b5061006b5f5481565b6040519081526020015b60405180910390f35b348015610089575f5ffd5b5061006b6100983660046102a8565b610126565b3480156100a8575f5ffd5b506100b1610225565b005b3480156100be575f5ffd5b506100e67f000000000000000000000000000000000000000000000000000000000000000081565b60405161007591906102f7565b3480156100fe575f5ffd5b506100e67f000000000000000000000000000000000000000000000000000000000000000081565b5f336001600160a01b037f000000000000000000000000000000000000000000000000000000000000000016146101995760405162461bcd60e51b815260206004820152601260248201527110504e881b9bdd08115b9d1c9e541bda5b9d60721b60448201526064015b60405180910390fd5b811561021c5760405163b760faf960e01b81526001600160a01b037f0000000000000000000000000000000000000000000000000000000000000000169063b760faf99084906101ed9030906004016102f7565b5f604051808303818588803b158015610204575f5ffd5b505af1158015610216573d5f5f3e3d5ffd5b50505050505b505f9392505050565b336001600160a01b037f000000000000000000000000000000000000000000000000000000000000000016146102935760405162461bcd60e51b815260206004820152601360248201527210504e881bdb9b1e48115b9d1c9e541bda5b9d606a1b6044820152606401610190565b5f805490806102a18361030b565b9190505550565b5f5f5f606084860312156102ba575f5ffd5b833567ffffffffffffffff8111156102d0575f5ffd5b840161012081870312156102e2575f5ffd5b95602085013595506040909401359392505050565b6001600160a01b0391909116815260200190565b5f6001820161032857634e487b7160e01b5f52601160045260245ffd5b506001019056fea2646970667358221220b68e6fced4d18957f49b1377f7161c18a867d0f71459d622611133f292f8cfd364736f6c634300081c0033a264697066735822122024a895ed34234774f00cbe4b56fa06966e7e44f61b8db931a189bd6e8e7b31b064736f6c634300081c0033","opcodes":"PUSH1 0xA0 PUSH1 0x40 MSTORE CALLVALUE DUP1 ISZERO PUSH1 0xE JUMPI PUSH0 PUSH0 REVERT JUMPDEST POP PUSH1 0x40 MLOAD PUSH2 0x768 CODESIZE SUB DUP1 PUSH2 0x768 DUP4 CODECOPY DUP2 ADD PUSH1 0x40 DUP2 SWAP1 MSTORE PUSH1 0x2B SWAP2 PUSH1 0x3B JUMP JUMPDEST PUSH1 0x1 PUSH1 0x1 PUSH1 0xA0 SHL SUB AND PUSH1 0x80 MSTORE PUSH1 0x66 JUMP JUMPDEST PUSH0 PUSH1 0x20 DUP3 DUP5 SUB SLT ISZERO PUSH1 0x4A JUMPI PUSH0 PUSH0 REVERT JUMPDEST DUP2 MLOAD PUSH1 0x1 PUSH1 0x1 PUSH1 0xA0 SHL SUB DUP2 AND DUP2 EQ PUSH1 0x5F JUMPI PUSH0 PUSH0 REVERT JUMPDEST SWAP4 SWAP3 POP POP POP JUMP JUMPDEST PUSH1 0x80 MLOAD PUSH2 0x6DE PUSH2 0x8A PUSH0 CODECOPY PUSH0 DUP2 DUP2 PUSH1 0x8A ADD MSTORE DUP2 DUP2 PUSH1 0xB4 ADD MSTORE PUSH2 0x13F ADD MSTORE PUSH2 0x6DE PUSH0 RETURN INVALID PUSH1 0x80 PUSH1 0x40 MSTORE CALLVALUE DUP1 ISZERO PUSH2 0xF JUMPI PUSH0 PUSH0 REVERT JUMPDEST POP PUSH1 0x4 CALLDATASIZE LT PUSH2 0x3F JUMPI PUSH0 CALLDATALOAD PUSH1 0xE0 SHR DUP1 PUSH4 0x5FBFB9CF EQ PUSH2 0x43 JUMPI DUP1 PUSH4 0x8CB84E18 EQ PUSH2 0x72 JUMPI DUP1 PUSH4 0xB3080C24 EQ PUSH2 0x85 JUMPI JUMPDEST PUSH0 PUSH0 REVERT JUMPDEST PUSH2 0x56 PUSH2 0x51 CALLDATASIZE PUSH1 0x4 PUSH2 0x1FB JUMP JUMPDEST PUSH2 0xAC JUMP JUMPDEST PUSH1 0x40 MLOAD PUSH1 0x1 PUSH1 0x1 PUSH1 0xA0 SHL SUB SWAP1 SWAP2 AND DUP2 MSTORE PUSH1 0x20 ADD PUSH1 0x40 MLOAD DUP1 SWAP2 SUB SWAP1 RETURN JUMPDEST PUSH2 0x56 PUSH2 0x80 CALLDATASIZE PUSH1 0x4 PUSH2 0x1FB JUMP JUMPDEST PUSH2 0x110 JUMP JUMPDEST PUSH2 0x56 PUSH32 0x0 DUP2 JUMP JUMPDEST PUSH0 PUSH0 DUP3 PUSH0 SHL DUP5 PUSH32 0x0 PUSH1 0x40 MLOAD PUSH2 0xDF SWAP1 PUSH2 0x1EE JUMP JUMPDEST PUSH2 0xEA SWAP3 SWAP2 SWAP1 PUSH2 0x230 JUMP JUMPDEST DUP2 SWAP1 PUSH1 0x40 MLOAD DUP1 SWAP2 SUB SWAP1 PUSH0 CREATE2 SWAP1 POP DUP1 ISZERO DUP1 ISZERO PUSH2 0x107 JUMPI RETURNDATASIZE PUSH0 PUSH0 RETURNDATACOPY RETURNDATASIZE PUSH0 REVERT JUMPDEST POP SWAP5 SWAP4 POP POP POP POP JUMP JUMPDEST PUSH0 PUSH0 PUSH1 0x40 MLOAD DUP1 PUSH1 0x20 ADD PUSH2 0x122 SWAP1 PUSH2 0x1EE JUMP JUMPDEST PUSH1 0x1F NOT DUP3 DUP3 SUB DUP2 ADD DUP4 MSTORE PUSH1 0x1F SWAP1 SWAP2 ADD AND PUSH1 0x40 DUP2 SWAP1 MSTORE PUSH2 0x167 SWAP1 DUP7 SWAP1 PUSH32 0x0 SWAP1 PUSH1 0x20 ADD PUSH2 0x230 JUMP JUMPDEST PUSH1 0x40 DUP1 MLOAD PUSH1 0x1F NOT DUP2 DUP5 SUB ADD DUP2 MSTORE SWAP1 DUP3 SWAP1 MSTORE PUSH2 0x185 SWAP3 SWAP2 PUSH1 0x20 ADD PUSH2 0x261 JUMP JUMPDEST PUSH1 0x40 DUP1 MLOAD DUP1 DUP4 SUB PUSH1 0x1F NOT ADD DUP2 MSTORE DUP3 DUP3 MSTORE DUP1 MLOAD PUSH1 0x20 SWAP2 DUP3 ADD KECCAK256 PUSH1 0x1 PUSH1 0x1 PUSH1 0xF8 SHL SUB NOT DUP3 DUP6 ADD MSTORE ADDRESS PUSH1 0x60 SHL PUSH1 0x1 PUSH1 0x1 PUSH1 0x60 SHL SUB NOT AND PUSH1 0x21 DUP6 ADD MSTORE PUSH1 0x35 DUP5 ADD SWAP7 SWAP1 SWAP7 MSTORE PUSH1 0x55 DUP1 DUP5 ADD SWAP7 SWAP1 SWAP7 MSTORE DUP2 MLOAD DUP1 DUP5 SUB SWAP1 SWAP7 ADD DUP7 MSTORE PUSH1 0x75 SWAP1 SWAP3 ADD SWAP1 MSTORE DUP4 MLOAD SWAP4 ADD SWAP3 SWAP1 SWAP3 KECCAK256 SWAP4 SWAP3 POP POP POP JUMP JUMPDEST PUSH2 0x42B DUP1 PUSH2 0x27E DUP4 CODECOPY ADD SWAP1 JUMP JUMPDEST PUSH0 PUSH0 PUSH1 0x40 DUP4 DUP6 SUB SLT ISZERO PUSH2 0x20C JUMPI PUSH0 PUSH0 REVERT JUMPDEST DUP3 CALLDATALOAD PUSH1 0x1 PUSH1 0x1 PUSH1 0xA0 SHL SUB DUP2 AND DUP2 EQ PUSH2 0x222 JUMPI PUSH0 PUSH0 REVERT JUMPDEST SWAP5 PUSH1 0x20 SWAP4 SWAP1 SWAP4 ADD CALLDATALOAD SWAP4 POP POP POP JUMP JUMPDEST PUSH1 0x1 PUSH1 0x1 PUSH1 0xA0 SHL SUB SWAP3 DUP4 AND DUP2 MSTORE SWAP2 AND PUSH1 0x20 DUP3 ADD MSTORE PUSH1 0x40 ADD SWAP1 JUMP JUMPDEST PUSH0 DUP2 MLOAD DUP1 PUSH1 0x20 DUP5 ADD DUP6 MCOPY PUSH0 SWAP4 ADD SWAP3 DUP4 MSTORE POP SWAP1 SWAP2 SWAP1 POP JUMP JUMPDEST PUSH0 PUSH2 0x275 PUSH2 0x26F DUP4 DUP7 PUSH2 0x24A JUMP JUMPDEST DUP5 PUSH2 0x24A JUMP JUMPDEST SWAP5 SWAP4 POP POP POP POP JUMP INVALID PUSH1 0xC0 PUSH1 0x40 MSTORE CALLVALUE DUP1 ISZERO PUSH2 0xF JUMPI PUSH0 PUSH0 REVERT JUMPDEST POP PUSH1 0x40 MLOAD PUSH2 0x42B CODESIZE SUB DUP1 PUSH2 0x42B DUP4 CODECOPY DUP2 ADD PUSH1 0x40 DUP2 SWAP1 MSTORE PUSH2 0x2E SWAP2 PUSH2 0x60 JUMP JUMPDEST PUSH1 0x1 PUSH1 0x1 PUSH1 0xA0 SHL SUB SWAP2 DUP3 AND PUSH1 0x80 MSTORE AND PUSH1 0xA0 MSTORE PUSH2 0x91 JUMP JUMPDEST DUP1 MLOAD PUSH1 0x1 PUSH1 0x1 PUSH1 0xA0 SHL SUB DUP2 AND DUP2 EQ PUSH2 0x5B JUMPI PUSH0 PUSH0 REVERT JUMPDEST SWAP2 SWAP1 POP JUMP JUMPDEST PUSH0 PUSH0 PUSH1 0x40 DUP4 DUP6 SUB SLT ISZERO PUSH2 0x71 JUMPI PUSH0 PUSH0 REVERT JUMPDEST PUSH2 0x7A DUP4 PUSH2 0x45 JUMP JUMPDEST SWAP2 POP PUSH2 0x88 PUSH1 0x20 DUP5 ADD PUSH2 0x45 JUMP JUMPDEST SWAP1 POP SWAP3 POP SWAP3 SWAP1 POP JUMP JUMPDEST PUSH1 0x80 MLOAD PUSH1 0xA0 MLOAD PUSH2 0x365 PUSH2 0xC6 PUSH0 CODECOPY PUSH0 DUP2 DUP2 PUSH2 0x104 ADD MSTORE DUP2 DUP2 PUSH2 0x132 ADD MSTORE DUP2 DUP2 PUSH2 0x1B6 ADD MSTORE PUSH2 0x230 ADD MSTORE PUSH0 PUSH1 0xC4 ADD MSTORE PUSH2 0x365 PUSH0 RETURN INVALID PUSH1 0x80 PUSH1 0x40 MSTORE PUSH1 0x4 CALLDATASIZE LT PUSH2 0x4C JUMPI PUSH0 CALLDATALOAD PUSH1 0xE0 SHR DUP1 PUSH4 0x6661ABD EQ PUSH2 0x57 JUMPI DUP1 PUSH4 0x19822F7C EQ PUSH2 0x7E JUMPI DUP1 PUSH4 0x61461954 EQ PUSH2 0x9D JUMPI DUP1 PUSH4 0x8DA5CB5B EQ PUSH2 0xB3 JUMPI DUP1 PUSH4 0xB0D691FE EQ PUSH2 0xF3 JUMPI PUSH0 PUSH0 REVERT JUMPDEST CALLDATASIZE PUSH2 0x53 JUMPI STOP JUMPDEST PUSH0 PUSH0 REVERT JUMPDEST CALLVALUE DUP1 ISZERO PUSH2 0x62 JUMPI PUSH0 PUSH0 REVERT JUMPDEST POP PUSH2 0x6B PUSH0 SLOAD DUP2 JUMP JUMPDEST PUSH1 0x40 MLOAD SWAP1 DUP2 MSTORE PUSH1 0x20 ADD JUMPDEST PUSH1 0x40 MLOAD DUP1 SWAP2 SUB SWAP1 RETURN JUMPDEST CALLVALUE DUP1 ISZERO PUSH2 0x89 JUMPI PUSH0 PUSH0 REVERT JUMPDEST POP PUSH2 0x6B PUSH2 0x98 CALLDATASIZE PUSH1 0x4 PUSH2 0x2A8 JUMP JUMPDEST PUSH2 0x126 JUMP JUMPDEST CALLVALUE DUP1 ISZERO PUSH2 0xA8 JUMPI PUSH0 PUSH0 REVERT JUMPDEST POP PUSH2 0xB1 PUSH2 0x225 JUMP JUMPDEST STOP JUMPDEST CALLVALUE DUP1 ISZERO PUSH2 0xBE JUMPI PUSH0 PUSH0 REVERT JUMPDEST POP PUSH2 0xE6 PUSH32 0x0 DUP2 JUMP JUMPDEST PUSH1 0x40 MLOAD PUSH2 0x75 SWAP2 SWAP1 PUSH2 0x2F7 JUMP JUMPDEST CALLVALUE DUP1 ISZERO PUSH2 0xFE JUMPI PUSH0 PUSH0 REVERT JUMPDEST POP PUSH2 0xE6 PUSH32 0x0 DUP2 JUMP JUMPDEST PUSH0 CALLER PUSH1 0x1 PUSH1 0x1 PUSH1 0xA0 SHL SUB PUSH32 0x0 AND EQ PUSH2 0x199 JUMPI PUSH1 0x40 MLOAD PUSH3 0x461BCD PUSH1 0xE5 SHL DUP2 MSTORE PUSH1 0x20 PUSH1 0x4 DUP3 ADD MSTORE PUSH1 0x12 PUSH1 0x24 DUP3 ADD MSTORE PUSH18 0x10504E881B9BDD08115B9D1C9E541BDA5B9D PUSH1 0x72 SHL PUSH1 0x44 DUP3 ADD MSTORE PUSH1 0x64 ADD JUMPDEST PUSH1 0x40 MLOAD DUP1 SWAP2 SUB SWAP1 REVERT JUMPDEST DUP2 ISZERO PUSH2 0x21C JUMPI PUSH1 0x40 MLOAD PUSH4 0xB760FAF9 PUSH1 0xE0 SHL DUP2 MSTORE PUSH1 0x1 PUSH1 0x1 PUSH1 0xA0 SHL SUB PUSH32 0x0 AND SWAP1 PUSH4 0xB760FAF9 SWAP1 DUP5 SWAP1 PUSH2 0x1ED SWAP1 ADDRESS SWAP1 PUSH1 0x4 ADD PUSH2 0x2F7 JUMP JUMPDEST PUSH0 PUSH1 0x40 MLOAD DUP1 DUP4 SUB DUP2 DUP6 DUP9 DUP1 EXTCODESIZE ISZERO DUP1 ISZERO PUSH2 0x204 JUMPI PUSH0 PUSH0 REVERT JUMPDEST POP GAS CALL ISZERO DUP1 ISZERO PUSH2 0x216 JUMPI RETURNDATASIZE PUSH0 PUSH0 RETURNDATACOPY RETURNDATASIZE PUSH0 REVERT JUMPDEST POP POP POP POP POP JUMPDEST POP PUSH0 SWAP4 SWAP3 POP POP POP JUMP JUMPDEST CALLER PUSH1 0x1 PUSH1 0x1 PUSH1 0xA0 SHL SUB PUSH32 0x0 AND EQ PUSH2 0x293 JUMPI PUSH1 0x40 MLOAD PUSH3 0x461BCD PUSH1 0xE5 SHL DUP2 MSTORE PUSH1 0x20 PUSH1 0x4 DUP3 ADD MSTORE PUSH1 0x13 PUSH1 0x24 DUP3 ADD MSTORE PUSH19 0x10504E881BDB9B1E48115B9D1C9E541BDA5B9D PUSH1 0x6A SHL PUSH1 0x44 DUP3 ADD MSTORE PUSH1 0x64 ADD PUSH2 0x190 JUMP JUMPDEST PUSH0 DUP1 SLOAD SWAP1 DUP1 PUSH2 0x2A1 DUP4 PUSH2 0x30B JUMP JUMPDEST SWAP2 SWAP1 POP SSTORE POP JUMP JUMPDEST PUSH0 PUSH0 PUSH0 PUSH1 0x60 DUP5 DUP7 SUB SLT ISZERO PUSH2 0x2BA JUMPI PUSH0 PUSH0 REVERT JUMPDEST DUP4 CALLDATALOAD PUSH8 0xFFFFFFFFFFFFFFFF DUP2 GT ISZERO PUSH2 0x2D0 JUMPI PUSH0 PUSH0 REVERT JUMPDEST DUP5 ADD PUSH2 0x120 DUP2 DUP8 SUB SLT ISZERO PUSH2 0x2E2 JUMPI PUSH0 PUSH0 REVERT JUMPDEST SWAP6 PUSH1 0x20 DUP6 ADD CALLDATALOAD SWAP6 POP PUSH1 0x40 SWAP1 SWAP5 ADD CALLDATALOAD SWAP4 SWAP3 POP POP POP JUMP JUMPDEST PUSH1 0x1 PUSH1 0x1 PUSH1 0xA0 SHL SUB SWAP2 SWAP1 SWAP2 AND DUP2 MSTORE PUSH1 0x20 ADD SWAP1 JUMP JUMPDEST PUSH0 PUSH1 0x1 DUP3 ADD PUSH2 0x328 JUMPI PUSH4 0x4E487B71 PUSH1 0xE0 SHL PUSH0 MSTORE PUSH1 0x11 PUSH1 0x4 MSTORE PUSH1 0x24 PUSH0 REVERT JUMPDEST POP PUSH1 0x1 ADD SWAP1 JUMP INVALID LOG2 PUSH5 0x6970667358 0x22 SLT KECCAK256 0xB6 DUP15 PUSH16 0xCED4D18957F49B1377F7161C18A867D0 0xF7 EQ MSIZE 0xD6 0x22 PUSH2 0x1133 CALLCODE SWAP3 0xF8 0xCF 0xD3 PUSH5 0x736F6C6343 STOP ADDMOD SHR STOP CALLER LOG2 PUSH5 0x6970667358 0x22 SLT KECCAK256 0x24 0xA8 SWAP6 0xED CALLVALUE 0x23 SELFBALANCE PUSH21 0xF00CBE4B56FA06966E7E44F61B8DB931A189BD6E8E PUSH28 0x31B064736F6C634300081C0033000000000000000000000000000000 "},"methodIdentifiers":{"_entryPoint()":"b3080c24","createAccount(address,uint256)":"5fbfb9cf","getAddress(address,uint256)":"8cb84e18"}}}}}