{
  "_format": "hh-sol-artifact-1",
  "contractName": "SenderCreator",
  "sourceName": "@account-abstraction/contracts/core/SenderCreator.sol",
  "abi": [
    {
      "inputs": [],
      "stateMutability": "nonpayable",
      "type": "constructor"
    },
    {
      "inputs": [
        {
          "internalType": "uint256",
          "name": "opIndex",
          "type": "uint256"
        },
        {
          "internalType": "string",
          "name": "reason",
          "type": "string"
        },
        {
          "internalType": "bytes",
          "name": "inner",
          "type": "bytes"
        }
      ],
      "name": "FailedOpWithRevert",
      "type": "error"
    },
    {
      "inputs": [
        {
          "internalType": "bytes",
          "name": "initCode",
          "type": "bytes"
        }
      ],
      "name": "createSender",
      "outputs": [
        {
          "internalType": "address",
          "name": "sender",
          "type": "address"
        }
      ],
      "stateMutability": "nonpayable",
      "type": "function"
    },
    {
      "inputs": [],
      "name": "entryPoint",
      "outputs": [
        {
          "internalType": "address",
          "name": "",
          "type": "address"
        }
      ],
      "stateMutability": "view",
      "type": "function"
    },
    {
      "inputs": [
        {
          "internalType": "address",
          "name": "sender",
          "type": "address"
        },
        {
          "internalType": "bytes",
          "name": "initCallData",
          "type": "bytes"
        }
      ],
      "name": "initEip7702Sender",
      "outputs": [],
      "stateMutability": "nonpayable",
      "type": "function"
    }
  ],
  "bytecode": "0x60a0604052348015600e575f5ffd5b50336080526080516104ca6100375f395f818160770152818160ba015261019001526104ca5ff3fe608060405234801561000f575f5ffd5b506004361061003f575f3560e01c8063570e1a3614610043578063b0d691fe14610072578063c09ad0d914610099575b5f5ffd5b610056610051366004610242565b6100ae565b6040516001600160a01b03909116815260200160405180910390f35b6100567f000000000000000000000000000000000000000000000000000000000000000081565b6100ac6100a73660046102c2565b610185565b005b5f336001600160a01b037f000000000000000000000000000000000000000000000000000000000000000016146101005760405162461bcd60e51b81526004016100f790610390565b60405180910390fd5b5f61010e60148285876103c5565b610117916103ec565b60601c90505f61012a84601481886103c5565b8080601f0160208091040260200160405190810160405280939291908181526020018383808284375f92018290525084519495509360209350849250905082850182875af19050801561017c575f5193505b50505092915050565b336001600160a01b037f000000000000000000000000000000000000000000000000000000000000000016146101cd5760405162461bcd60e51b81526004016100f790610390565b5f5f5f8351602085015f875af190508061020c575f6101ed610800610211565b90505f816040516365c8fd4d60e01b81526004016100f7929190610424565b505050565b60603d821561022557828111156102255750815b604051602082018101604052818152815f602083013e9392505050565b5f5f60208385031215610253575f5ffd5b82356001600160401b03811115610268575f5ffd5b8301601f81018513610278575f5ffd5b80356001600160401b0381111561028d575f5ffd5b85602082840101111561029e575f5ffd5b6020919091019590945092505050565b634e487b7160e01b5f52604160045260245ffd5b5f5f604083850312156102d3575f5ffd5b82356001600160a01b03811681146102e9575f5ffd5b915060208301356001600160401b03811115610303575f5ffd5b8301601f81018513610313575f5ffd5b80356001600160401b0381111561032c5761032c6102ae565b604051601f8201601f19908116603f011681016001600160401b038111828210171561035a5761035a6102ae565b604052818152828201602001871015610371575f5ffd5b816020840160208301375f602083830101528093505050509250929050565b6020808252818101527f414139372073686f756c642063616c6c2066726f6d20456e747279506f696e74604082015260600190565b5f5f858511156103d3575f5ffd5b838611156103df575f5ffd5b5050820193919092039150565b80356001600160601b0319811690601484101561041d576001600160601b0319601485900360031b81901b82161691505b5092915050565b82815260606020820152601f60608201527f4141313320454950373730322073656e64657220696e6974206661696c656400608082015260a060408201525f82518060a0840152806020850160c085015e5f60c0828501015260c0601f19601f830116840101915050939250505056fea26469706673582212208686f5490393e4543115f880163d4f3283a52e82b66e2a4ddd2840a34f36d5e364736f6c634300081c0033",
  "linkReferences": {},
  "deployedLinkReferences": {}
}