{
  "_format": "hh-sol-artifact-1",
  "contractName": "Account",
  "sourceName": "contracts/Account.sol",
  "abi": [
    {
      "inputs": [
        {
          "internalType": "address",
          "name": "_owner",
          "type": "address"
        },
        {
          "internalType": "address",
          "name": "_entryPoint",
          "type": "address"
        }
      ],
      "stateMutability": "nonpayable",
      "type": "constructor"
    },
    {
      "inputs": [],
      "name": "count",
      "outputs": [
        {
          "internalType": "uint256",
          "name": "",
          "type": "uint256"
        }
      ],
      "stateMutability": "view",
      "type": "function"
    },
    {
      "inputs": [],
      "name": "entryPoint",
      "outputs": [
        {
          "internalType": "contract EntryPoint",
          "name": "",
          "type": "address"
        }
      ],
      "stateMutability": "view",
      "type": "function"
    },
    {
      "inputs": [],
      "name": "execute",
      "outputs": [],
      "stateMutability": "nonpayable",
      "type": "function"
    },
    {
      "inputs": [],
      "name": "owner",
      "outputs": [
        {
          "internalType": "address",
          "name": "",
          "type": "address"
        }
      ],
      "stateMutability": "view",
      "type": "function"
    },
    {
      "inputs": [
        {
          "components": [
            {
              "internalType": "address",
              "name": "sender",
              "type": "address"
            },
            {
              "internalType": "uint256",
              "name": "nonce",
              "type": "uint256"
            },
            {
              "internalType": "bytes",
              "name": "initCode",
              "type": "bytes"
            },
            {
              "internalType": "bytes",
              "name": "callData",
              "type": "bytes"
            },
            {
              "internalType": "bytes32",
              "name": "accountGasLimits",
              "type": "bytes32"
            },
            {
              "internalType": "uint256",
              "name": "preVerificationGas",
              "type": "uint256"
            },
            {
              "internalType": "bytes32",
              "name": "gasFees",
              "type": "bytes32"
            },
            {
              "internalType": "bytes",
              "name": "paymasterAndData",
              "type": "bytes"
            },
            {
              "internalType": "bytes",
              "name": "signature",
              "type": "bytes"
            }
          ],
          "internalType": "struct PackedUserOperation",
          "name": "",
          "type": "tuple"
        },
        {
          "internalType": "bytes32",
          "name": "",
          "type": "bytes32"
        },
        {
          "internalType": "uint256",
          "name": "missingAccountFunds",
          "type": "uint256"
        }
      ],
      "name": "validateUserOp",
      "outputs": [
        {
          "internalType": "uint256",
          "name": "validationData",
          "type": "uint256"
        }
      ],
      "stateMutability": "nonpayable",
      "type": "function"
    },
    {
      "stateMutability": "payable",
      "type": "receive"
    }
  ],
  "bytecode": "0x60c060405234801561000f575f5ffd5b5060405161042b38038061042b83398101604081905261002e91610060565b6001600160a01b039182166080521660a052610091565b80516001600160a01b038116811461005b575f5ffd5b919050565b5f5f60408385031215610071575f5ffd5b61007a83610045565b915061008860208401610045565b90509250929050565b60805160a0516103656100c65f395f818161010401528181610132015281816101b6015261023001525f60c401526103655ff3fe60806040526004361061004c575f3560e01c806306661abd1461005757806319822f7c1461007e578063614619541461009d5780638da5cb5b146100b3578063b0d691fe146100f3575f5ffd5b3661005357005b5f5ffd5b348015610062575f5ffd5b5061006b5f5481565b6040519081526020015b60405180910390f35b348015610089575f5ffd5b5061006b6100983660046102a8565b610126565b3480156100a8575f5ffd5b506100b1610225565b005b3480156100be575f5ffd5b506100e67f000000000000000000000000000000000000000000000000000000000000000081565b60405161007591906102f7565b3480156100fe575f5ffd5b506100e67f000000000000000000000000000000000000000000000000000000000000000081565b5f336001600160a01b037f000000000000000000000000000000000000000000000000000000000000000016146101995760405162461bcd60e51b815260206004820152601260248201527110504e881b9bdd08115b9d1c9e541bda5b9d60721b60448201526064015b60405180910390fd5b811561021c5760405163b760faf960e01b81526001600160a01b037f0000000000000000000000000000000000000000000000000000000000000000169063b760faf99084906101ed9030906004016102f7565b5f604051808303818588803b158015610204575f5ffd5b505af1158015610216573d5f5f3e3d5ffd5b50505050505b505f9392505050565b336001600160a01b037f000000000000000000000000000000000000000000000000000000000000000016146102935760405162461bcd60e51b815260206004820152601360248201527210504e881bdb9b1e48115b9d1c9e541bda5b9d606a1b6044820152606401610190565b5f805490806102a18361030b565b9190505550565b5f5f5f606084860312156102ba575f5ffd5b833567ffffffffffffffff8111156102d0575f5ffd5b840161012081870312156102e2575f5ffd5b95602085013595506040909401359392505050565b6001600160a01b0391909116815260200190565b5f6001820161032857634e487b7160e01b5f52601160045260245ffd5b506001019056fea264697066735822122054a8f03765f2771103703be0f15c5b048138ea5a36c9d32a04166f83a48c0a0464736f6c634300081c0033",
  "linkReferences": {},
  "deployedLinkReferences": {}
}