{
  "_format": "hh-sol-artifact-1",
  "contractName": "AccountFactory2",
  "sourceName": "contracts/Account.sol",
  "abi": [
    {
      "inputs": [
        {
          "internalType": "address",
          "name": "entryPoint",
          "type": "address"
        }
      ],
      "stateMutability": "nonpayable",
      "type": "constructor"
    },
    {
      "inputs": [],
      "name": "_entryPoint",
      "outputs": [
        {
          "internalType": "address",
          "name": "",
          "type": "address"
        }
      ],
      "stateMutability": "view",
      "type": "function"
    },
    {
      "inputs": [
        {
          "internalType": "address",
          "name": "_owner",
          "type": "address"
        },
        {
          "internalType": "uint256",
          "name": "_salt",
          "type": "uint256"
        }
      ],
      "name": "createAccount",
      "outputs": [
        {
          "internalType": "address",
          "name": "",
          "type": "address"
        }
      ],
      "stateMutability": "nonpayable",
      "type": "function"
    },
    {
      "inputs": [
        {
          "internalType": "address",
          "name": "owner",
          "type": "address"
        },
        {
          "internalType": "uint256",
          "name": "salt",
          "type": "uint256"
        }
      ],
      "name": "getAddress",
      "outputs": [
        {
          "internalType": "address",
          "name": "predicted",
          "type": "address"
        }
      ],
      "stateMutability": "view",
      "type": "function"
    }
  ],
  "bytecode": "0x60a0604052348015600e575f5ffd5b50604051610768380380610768833981016040819052602b91603b565b6001600160a01b03166080526066565b5f60208284031215604a575f5ffd5b81516001600160a01b0381168114605f575f5ffd5b9392505050565b6080516106de61008a5f395f8181608a0152818160b4015261013f01526106de5ff3fe608060405234801561000f575f5ffd5b506004361061003f575f3560e01c80635fbfb9cf146100435780638cb84e1814610072578063b3080c2414610085575b5f5ffd5b6100566100513660046101fb565b6100ac565b6040516001600160a01b03909116815260200160405180910390f35b6100566100803660046101fb565b610110565b6100567f000000000000000000000000000000000000000000000000000000000000000081565b5f5f825f1b847f00000000000000000000000000000000000000000000000000000000000000006040516100df906101ee565b6100ea929190610230565b8190604051809103905ff5905080158015610107573d5f5f3e3d5ffd5b50949350505050565b5f5f60405180602001610122906101ee565b601f1982820381018352601f9091011660408190526101679086907f000000000000000000000000000000000000000000000000000000000000000090602001610230565b60408051601f19818403018152908290526101859291602001610261565b60408051808303601f1901815282825280516020918201206001600160f81b0319828501523060601b6001600160601b03191660218501526035840196909652605580840196909652815180840390960186526075909201905283519301929092209392505050565b61042b8061027e83390190565b5f5f6040838503121561020c575f5ffd5b82356001600160a01b0381168114610222575f5ffd5b946020939093013593505050565b6001600160a01b0392831681529116602082015260400190565b5f81518060208401855e5f93019283525090919050565b5f61027561026f838661024a565b8461024a565b94935050505056fe60c060405234801561000f575f5ffd5b5060405161042b38038061042b83398101604081905261002e91610060565b6001600160a01b039182166080521660a052610091565b80516001600160a01b038116811461005b575f5ffd5b919050565b5f5f60408385031215610071575f5ffd5b61007a83610045565b915061008860208401610045565b90509250929050565b60805160a0516103656100c65f395f818161010401528181610132015281816101b6015261023001525f60c401526103655ff3fe60806040526004361061004c575f3560e01c806306661abd1461005757806319822f7c1461007e578063614619541461009d5780638da5cb5b146100b3578063b0d691fe146100f3575f5ffd5b3661005357005b5f5ffd5b348015610062575f5ffd5b5061006b5f5481565b6040519081526020015b60405180910390f35b348015610089575f5ffd5b5061006b6100983660046102a8565b610126565b3480156100a8575f5ffd5b506100b1610225565b005b3480156100be575f5ffd5b506100e67f000000000000000000000000000000000000000000000000000000000000000081565b60405161007591906102f7565b3480156100fe575f5ffd5b506100e67f000000000000000000000000000000000000000000000000000000000000000081565b5f336001600160a01b037f000000000000000000000000000000000000000000000000000000000000000016146101995760405162461bcd60e51b815260206004820152601260248201527110504e881b9bdd08115b9d1c9e541bda5b9d60721b60448201526064015b60405180910390fd5b811561021c5760405163b760faf960e01b81526001600160a01b037f0000000000000000000000000000000000000000000000000000000000000000169063b760faf99084906101ed9030906004016102f7565b5f604051808303818588803b158015610204575f5ffd5b505af1158015610216573d5f5f3e3d5ffd5b50505050505b505f9392505050565b336001600160a01b037f000000000000000000000000000000000000000000000000000000000000000016146102935760405162461bcd60e51b815260206004820152601360248201527210504e881bdb9b1e48115b9d1c9e541bda5b9d606a1b6044820152606401610190565b5f805490806102a18361030b565b9190505550565b5f5f5f606084860312156102ba575f5ffd5b833567ffffffffffffffff8111156102d0575f5ffd5b840161012081870312156102e2575f5ffd5b95602085013595506040909401359392505050565b6001600160a01b0391909116815260200190565b5f6001820161032857634e487b7160e01b5f52601160045260245ffd5b506001019056fea2646970667358221220b68e6fced4d18957f49b1377f7161c18a867d0f71459d622611133f292f8cfd364736f6c634300081c0033a264697066735822122024a895ed34234774f00cbe4b56fa06966e7e44f61b8db931a189bd6e8e7b31b064736f6c634300081c0033",
  "linkReferences": {},
  "deployedLinkReferences": {}
}