{
  "_format": "hh-sol-artifact-1",
  "contractName": "Account",
  "sourceName": "contracts/Account.sol",
  "abi": [
    {
      "inputs": [
        {
          "internalType": "address",
          "name": "_owner",
          "type": "address"
        },
        {
          "internalType": "address",
          "name": "_entryPoint",
          "type": "address"
        }
      ],
      "stateMutability": "nonpayable",
      "type": "constructor"
    },
    {
      "inputs": [],
      "name": "ECDSAInvalidSignature",
      "type": "error"
    },
    {
      "inputs": [
        {
          "internalType": "uint256",
          "name": "length",
          "type": "uint256"
        }
      ],
      "name": "ECDSAInvalidSignatureLength",
      "type": "error"
    },
    {
      "inputs": [
        {
          "internalType": "bytes32",
          "name": "s",
          "type": "bytes32"
        }
      ],
      "name": "ECDSAInvalidSignatureS",
      "type": "error"
    },
    {
      "inputs": [],
      "name": "count",
      "outputs": [
        {
          "internalType": "uint256",
          "name": "",
          "type": "uint256"
        }
      ],
      "stateMutability": "view",
      "type": "function"
    },
    {
      "inputs": [],
      "name": "entryPoint",
      "outputs": [
        {
          "internalType": "contract EntryPoint",
          "name": "",
          "type": "address"
        }
      ],
      "stateMutability": "view",
      "type": "function"
    },
    {
      "inputs": [],
      "name": "execute",
      "outputs": [],
      "stateMutability": "nonpayable",
      "type": "function"
    },
    {
      "inputs": [],
      "name": "owner",
      "outputs": [
        {
          "internalType": "address",
          "name": "",
          "type": "address"
        }
      ],
      "stateMutability": "view",
      "type": "function"
    },
    {
      "inputs": [
        {
          "components": [
            {
              "internalType": "address",
              "name": "sender",
              "type": "address"
            },
            {
              "internalType": "uint256",
              "name": "nonce",
              "type": "uint256"
            },
            {
              "internalType": "bytes",
              "name": "initCode",
              "type": "bytes"
            },
            {
              "internalType": "bytes",
              "name": "callData",
              "type": "bytes"
            },
            {
              "internalType": "bytes32",
              "name": "accountGasLimits",
              "type": "bytes32"
            },
            {
              "internalType": "uint256",
              "name": "preVerificationGas",
              "type": "uint256"
            },
            {
              "internalType": "bytes32",
              "name": "gasFees",
              "type": "bytes32"
            },
            {
              "internalType": "bytes",
              "name": "paymasterAndData",
              "type": "bytes"
            },
            {
              "internalType": "bytes",
              "name": "signature",
              "type": "bytes"
            }
          ],
          "internalType": "struct PackedUserOperation",
          "name": "userOp",
          "type": "tuple"
        },
        {
          "internalType": "bytes32",
          "name": "userOpHash",
          "type": "bytes32"
        },
        {
          "internalType": "uint256",
          "name": "missingAccountFunds",
          "type": "uint256"
        }
      ],
      "name": "validateUserOp",
      "outputs": [
        {
          "internalType": "uint256",
          "name": "validationData",
          "type": "uint256"
        }
      ],
      "stateMutability": "nonpayable",
      "type": "function"
    },
    {
      "stateMutability": "payable",
      "type": "receive"
    }
  ],
  "bytecode": "0x60c060405234801561000f575f5ffd5b50604051610a23380380610a2383398101604081905261002e91610060565b6001600160a01b039182166080521660a052610091565b80516001600160a01b038116811461005b575f5ffd5b919050565b5f5f60408385031215610071575f5ffd5b61007a83610045565b915061008860208401610045565b90509250929050565b60805160a0516109566100cd5f395f818161010401528181610132015281816101b6015261031701525f818160c401526102ca01526109565ff3fe60806040526004361061004c575f3560e01c806306661abd1461005757806319822f7c1461007e578063614619541461009d5780638da5cb5b146100b3578063b0d691fe146100f3575f5ffd5b3661005357005b5f5ffd5b348015610062575f5ffd5b5061006b5f5481565b6040519081526020015b60405180910390f35b348015610089575f5ffd5b5061006b61009836600461078a565b610126565b3480156100a8575f5ffd5b506100b161030c565b005b3480156100be575f5ffd5b506100e67f000000000000000000000000000000000000000000000000000000000000000081565b60405161007591906107d9565b3480156100fe575f5ffd5b506100e67f000000000000000000000000000000000000000000000000000000000000000081565b5f336001600160a01b037f000000000000000000000000000000000000000000000000000000000000000016146101995760405162461bcd60e51b815260206004820152601260248201527110504e881b9bdd08115b9d1c9e541bda5b9d60721b60448201526064015b60405180910390fd5b811561021c5760405163b760faf960e01b81526001600160a01b037f0000000000000000000000000000000000000000000000000000000000000000169063b760faf99084906101ed9030906004016107d9565b5f604051808303818588803b158015610204575f5ffd5b505af1158015610216573d5f5f3e3d5ffd5b50505050505b5f61029161024a8560405160200161023691815260200190565b60405160208183030381529060405261038f565b6102586101008801886107ed565b8080601f0160208091040260200160405190810160405280939291908181526020018383808284375f920191909152506103c992505050565b90506102be604051806040016040528060098152602001681c9958dbdd995c995960ba1b815250826103f1565b806001600160a01b03167f00000000000000000000000000000000000000000000000000000000000000006001600160a01b0316146102fe576001610300565b5f5b60ff1695945050505050565b336001600160a01b037f0000000000000000000000000000000000000000000000000000000000000000161461037a5760405162461bcd60e51b815260206004820152601360248201527210504e881bdb9b1e48115b9d1c9e541bda5b9d606a1b6044820152606401610190565b5f8054908061038883610837565b9190505550565b5f61039a825161043a565b826040516020016103ac929190610872565b604051602081830303815290604052805190602001209050919050565b5f5f5f5f6103d786866104ca565b9250925092506103e78282610513565b5090949350505050565b61043682826040516024016104079291906108b1565b60408051601f198184030181529190526020810180516001600160e01b031663319af33360e01b1790526105cb565b5050565b60605f610446836105d7565b60010190505f8167ffffffffffffffff811115610465576104656108f8565b6040519080825280601f01601f19166020018201604052801561048f576020820181803683370190505b5090508181016020015b5f19016f181899199a1a9b1b9c1cb0b131b232b360811b600a86061a8153600a850494508461049957509392505050565b5f5f5f8351604103610501576020840151604085015160608601515f1a6104f3888285856106ad565b95509550955050505061050c565b505081515f91506002905b9250925092565b5f8260038111156105265761052661090c565b0361052f575050565b60018260038111156105435761054361090c565b036105615760405163f645eedf60e01b815260040160405180910390fd5b60028260038111156105755761057561090c565b036105965760405163fce698f760e01b815260048101829052602401610190565b60038260038111156105aa576105aa61090c565b03610436576040516335e2f38360e21b815260048101829052602401610190565b6105d48161076b565b50565b5f8072184f03e93ff9f4daa797ed6e38ed64bf6a1f0160401b83106106155772184f03e93ff9f4daa797ed6e38ed64bf6a1f0160401b830492506040015b6904ee2d6d415b85acef8160201b831061063f576904ee2d6d415b85acef8160201b830492506020015b662386f26fc10000831061065d57662386f26fc10000830492506010015b6305f5e1008310610675576305f5e100830492506008015b612710831061068957612710830492506004015b6064831061069b576064830492506002015b600a83106106a7576001015b92915050565b5f80806fa2a8918ca85bafe22016d0b997e4df60600160ff1b038411156106dc57505f91506003905082610761565b604080515f808252602082018084528a905260ff891692820192909252606081018790526080810186905260019060a0016020604051602081039080840390855afa15801561072d573d5f5f3e3d5ffd5b5050604051601f1901519150506001600160a01b03811661075857505f925060019150829050610761565b92505f91508190505b9450945094915050565b5f6a636f6e736f6c652e6c6f6790505f5f835160208501845afa505050565b5f5f5f6060848603121561079c575f5ffd5b833567ffffffffffffffff8111156107b2575f5ffd5b840161012081870312156107c4575f5ffd5b95602085013595506040909401359392505050565b6001600160a01b0391909116815260200190565b5f5f8335601e19843603018112610802575f5ffd5b83018035915067ffffffffffffffff82111561081c575f5ffd5b602001915036819003821315610830575f5ffd5b9250929050565b5f6001820161085457634e487b7160e01b5f52601160045260245ffd5b5060010190565b5f81518060208401855e5f93019283525090919050565b790ca2ba3432b932bab69029b4b3b732b21026b2b9b9b0b3b29d0560311b81525f6108a96108a3601a84018661085b565b8461085b565b949350505050565b604081525f83518060408401528060208601606085015e5f60608285018101919091526001600160a01b03949094166020840152601f01601f191690910190910192915050565b634e487b7160e01b5f52604160045260245ffd5b634e487b7160e01b5f52602160045260245ffdfea2646970667358221220846f0bf26d8ca084dc3fa971fccd8c3a6f6b591490a84fe5873f52756f6f148b64736f6c634300081c0033",
  "linkReferences": {},
  "deployedLinkReferences": {}
}