{
  "_format": "hh-sol-artifact-1",
  "contractName": "EntryPoint",
  "sourceName": "@account-abstraction/contracts/core/EntryPoint.sol",
  "abi": [
    {
      "inputs": [],
      "stateMutability": "nonpayable",
      "type": "constructor"
    },
    {
      "inputs": [
        {
          "internalType": "bool",
          "name": "success",
          "type": "bool"
        },
        {
          "internalType": "bytes",
          "name": "ret",
          "type": "bytes"
        }
      ],
      "name": "DelegateAndRevert",
      "type": "error"
    },
    {
      "inputs": [
        {
          "internalType": "uint256",
          "name": "opIndex",
          "type": "uint256"
        },
        {
          "internalType": "string",
          "name": "reason",
          "type": "string"
        }
      ],
      "name": "FailedOp",
      "type": "error"
    },
    {
      "inputs": [
        {
          "internalType": "uint256",
          "name": "opIndex",
          "type": "uint256"
        },
        {
          "internalType": "string",
          "name": "reason",
          "type": "string"
        },
        {
          "internalType": "bytes",
          "name": "inner",
          "type": "bytes"
        }
      ],
      "name": "FailedOpWithRevert",
      "type": "error"
    },
    {
      "inputs": [],
      "name": "InvalidShortString",
      "type": "error"
    },
    {
      "inputs": [
        {
          "internalType": "bytes",
          "name": "returnData",
          "type": "bytes"
        }
      ],
      "name": "PostOpReverted",
      "type": "error"
    },
    {
      "inputs": [],
      "name": "ReentrancyGuardReentrantCall",
      "type": "error"
    },
    {
      "inputs": [
        {
          "internalType": "address",
          "name": "sender",
          "type": "address"
        }
      ],
      "name": "SenderAddressResult",
      "type": "error"
    },
    {
      "inputs": [
        {
          "internalType": "address",
          "name": "aggregator",
          "type": "address"
        }
      ],
      "name": "SignatureValidationFailed",
      "type": "error"
    },
    {
      "inputs": [
        {
          "internalType": "string",
          "name": "str",
          "type": "string"
        }
      ],
      "name": "StringTooLong",
      "type": "error"
    },
    {
      "anonymous": false,
      "inputs": [
        {
          "indexed": true,
          "internalType": "bytes32",
          "name": "userOpHash",
          "type": "bytes32"
        },
        {
          "indexed": true,
          "internalType": "address",
          "name": "sender",
          "type": "address"
        },
        {
          "indexed": false,
          "internalType": "address",
          "name": "factory",
          "type": "address"
        },
        {
          "indexed": false,
          "internalType": "address",
          "name": "paymaster",
          "type": "address"
        }
      ],
      "name": "AccountDeployed",
      "type": "event"
    },
    {
      "anonymous": false,
      "inputs": [],
      "name": "BeforeExecution",
      "type": "event"
    },
    {
      "anonymous": false,
      "inputs": [
        {
          "indexed": true,
          "internalType": "address",
          "name": "account",
          "type": "address"
        },
        {
          "indexed": false,
          "internalType": "uint256",
          "name": "totalDeposit",
          "type": "uint256"
        }
      ],
      "name": "Deposited",
      "type": "event"
    },
    {
      "anonymous": false,
      "inputs": [],
      "name": "EIP712DomainChanged",
      "type": "event"
    },
    {
      "anonymous": false,
      "inputs": [
        {
          "indexed": true,
          "internalType": "bytes32",
          "name": "userOpHash",
          "type": "bytes32"
        },
        {
          "indexed": true,
          "internalType": "address",
          "name": "sender",
          "type": "address"
        },
        {
          "indexed": false,
          "internalType": "uint256",
          "name": "nonce",
          "type": "uint256"
        },
        {
          "indexed": false,
          "internalType": "bytes",
          "name": "revertReason",
          "type": "bytes"
        }
      ],
      "name": "PostOpRevertReason",
      "type": "event"
    },
    {
      "anonymous": false,
      "inputs": [
        {
          "indexed": true,
          "internalType": "address",
          "name": "aggregator",
          "type": "address"
        }
      ],
      "name": "SignatureAggregatorChanged",
      "type": "event"
    },
    {
      "anonymous": false,
      "inputs": [
        {
          "indexed": true,
          "internalType": "address",
          "name": "account",
          "type": "address"
        },
        {
          "indexed": false,
          "internalType": "uint256",
          "name": "totalStaked",
          "type": "uint256"
        },
        {
          "indexed": false,
          "internalType": "uint256",
          "name": "unstakeDelaySec",
          "type": "uint256"
        }
      ],
      "name": "StakeLocked",
      "type": "event"
    },
    {
      "anonymous": false,
      "inputs": [
        {
          "indexed": true,
          "internalType": "address",
          "name": "account",
          "type": "address"
        },
        {
          "indexed": false,
          "internalType": "uint256",
          "name": "withdrawTime",
          "type": "uint256"
        }
      ],
      "name": "StakeUnlocked",
      "type": "event"
    },
    {
      "anonymous": false,
      "inputs": [
        {
          "indexed": true,
          "internalType": "address",
          "name": "account",
          "type": "address"
        },
        {
          "indexed": false,
          "internalType": "address",
          "name": "withdrawAddress",
          "type": "address"
        },
        {
          "indexed": false,
          "internalType": "uint256",
          "name": "amount",
          "type": "uint256"
        }
      ],
      "name": "StakeWithdrawn",
      "type": "event"
    },
    {
      "anonymous": false,
      "inputs": [
        {
          "indexed": true,
          "internalType": "bytes32",
          "name": "userOpHash",
          "type": "bytes32"
        },
        {
          "indexed": true,
          "internalType": "address",
          "name": "sender",
          "type": "address"
        },
        {
          "indexed": true,
          "internalType": "address",
          "name": "paymaster",
          "type": "address"
        },
        {
          "indexed": false,
          "internalType": "uint256",
          "name": "nonce",
          "type": "uint256"
        },
        {
          "indexed": false,
          "internalType": "bool",
          "name": "success",
          "type": "bool"
        },
        {
          "indexed": false,
          "internalType": "uint256",
          "name": "actualGasCost",
          "type": "uint256"
        },
        {
          "indexed": false,
          "internalType": "uint256",
          "name": "actualGasUsed",
          "type": "uint256"
        }
      ],
      "name": "UserOperationEvent",
      "type": "event"
    },
    {
      "anonymous": false,
      "inputs": [
        {
          "indexed": true,
          "internalType": "bytes32",
          "name": "userOpHash",
          "type": "bytes32"
        },
        {
          "indexed": true,
          "internalType": "address",
          "name": "sender",
          "type": "address"
        },
        {
          "indexed": false,
          "internalType": "uint256",
          "name": "nonce",
          "type": "uint256"
        }
      ],
      "name": "UserOperationPrefundTooLow",
      "type": "event"
    },
    {
      "anonymous": false,
      "inputs": [
        {
          "indexed": true,
          "internalType": "bytes32",
          "name": "userOpHash",
          "type": "bytes32"
        },
        {
          "indexed": true,
          "internalType": "address",
          "name": "sender",
          "type": "address"
        },
        {
          "indexed": false,
          "internalType": "uint256",
          "name": "nonce",
          "type": "uint256"
        },
        {
          "indexed": false,
          "internalType": "bytes",
          "name": "revertReason",
          "type": "bytes"
        }
      ],
      "name": "UserOperationRevertReason",
      "type": "event"
    },
    {
      "anonymous": false,
      "inputs": [
        {
          "indexed": true,
          "internalType": "address",
          "name": "account",
          "type": "address"
        },
        {
          "indexed": false,
          "internalType": "address",
          "name": "withdrawAddress",
          "type": "address"
        },
        {
          "indexed": false,
          "internalType": "uint256",
          "name": "amount",
          "type": "uint256"
        }
      ],
      "name": "Withdrawn",
      "type": "event"
    },
    {
      "inputs": [
        {
          "internalType": "uint32",
          "name": "unstakeDelaySec",
          "type": "uint32"
        }
      ],
      "name": "addStake",
      "outputs": [],
      "stateMutability": "payable",
      "type": "function"
    },
    {
      "inputs": [
        {
          "internalType": "address",
          "name": "account",
          "type": "address"
        }
      ],
      "name": "balanceOf",
      "outputs": [
        {
          "internalType": "uint256",
          "name": "",
          "type": "uint256"
        }
      ],
      "stateMutability": "view",
      "type": "function"
    },
    {
      "inputs": [
        {
          "internalType": "address",
          "name": "target",
          "type": "address"
        },
        {
          "internalType": "bytes",
          "name": "data",
          "type": "bytes"
        }
      ],
      "name": "delegateAndRevert",
      "outputs": [],
      "stateMutability": "nonpayable",
      "type": "function"
    },
    {
      "inputs": [
        {
          "internalType": "address",
          "name": "account",
          "type": "address"
        }
      ],
      "name": "depositTo",
      "outputs": [],
      "stateMutability": "payable",
      "type": "function"
    },
    {
      "inputs": [],
      "name": "eip712Domain",
      "outputs": [
        {
          "internalType": "bytes1",
          "name": "fields",
          "type": "bytes1"
        },
        {
          "internalType": "string",
          "name": "name",
          "type": "string"
        },
        {
          "internalType": "string",
          "name": "version",
          "type": "string"
        },
        {
          "internalType": "uint256",
          "name": "chainId",
          "type": "uint256"
        },
        {
          "internalType": "address",
          "name": "verifyingContract",
          "type": "address"
        },
        {
          "internalType": "bytes32",
          "name": "salt",
          "type": "bytes32"
        },
        {
          "internalType": "uint256[]",
          "name": "extensions",
          "type": "uint256[]"
        }
      ],
      "stateMutability": "view",
      "type": "function"
    },
    {
      "inputs": [
        {
          "internalType": "address",
          "name": "account",
          "type": "address"
        }
      ],
      "name": "getDepositInfo",
      "outputs": [
        {
          "components": [
            {
              "internalType": "uint256",
              "name": "deposit",
              "type": "uint256"
            },
            {
              "internalType": "bool",
              "name": "staked",
              "type": "bool"
            },
            {
              "internalType": "uint112",
              "name": "stake",
              "type": "uint112"
            },
            {
              "internalType": "uint32",
              "name": "unstakeDelaySec",
              "type": "uint32"
            },
            {
              "internalType": "uint48",
              "name": "withdrawTime",
              "type": "uint48"
            }
          ],
          "internalType": "struct IStakeManager.DepositInfo",
          "name": "info",
          "type": "tuple"
        }
      ],
      "stateMutability": "view",
      "type": "function"
    },
    {
      "inputs": [],
      "name": "getDomainSeparatorV4",
      "outputs": [
        {
          "internalType": "bytes32",
          "name": "",
          "type": "bytes32"
        }
      ],
      "stateMutability": "view",
      "type": "function"
    },
    {
      "inputs": [
        {
          "internalType": "address",
          "name": "sender",
          "type": "address"
        },
        {
          "internalType": "uint192",
          "name": "key",
          "type": "uint192"
        }
      ],
      "name": "getNonce",
      "outputs": [
        {
          "internalType": "uint256",
          "name": "nonce",
          "type": "uint256"
        }
      ],
      "stateMutability": "view",
      "type": "function"
    },
    {
      "inputs": [],
      "name": "getPackedUserOpTypeHash",
      "outputs": [
        {
          "internalType": "bytes32",
          "name": "",
          "type": "bytes32"
        }
      ],
      "stateMutability": "pure",
      "type": "function"
    },
    {
      "inputs": [
        {
          "internalType": "bytes",
          "name": "initCode",
          "type": "bytes"
        }
      ],
      "name": "getSenderAddress",
      "outputs": [],
      "stateMutability": "nonpayable",
      "type": "function"
    },
    {
      "inputs": [
        {
          "components": [
            {
              "internalType": "address",
              "name": "sender",
              "type": "address"
            },
            {
              "internalType": "uint256",
              "name": "nonce",
              "type": "uint256"
            },
            {
              "internalType": "bytes",
              "name": "initCode",
              "type": "bytes"
            },
            {
              "internalType": "bytes",
              "name": "callData",
              "type": "bytes"
            },
            {
              "internalType": "bytes32",
              "name": "accountGasLimits",
              "type": "bytes32"
            },
            {
              "internalType": "uint256",
              "name": "preVerificationGas",
              "type": "uint256"
            },
            {
              "internalType": "bytes32",
              "name": "gasFees",
              "type": "bytes32"
            },
            {
              "internalType": "bytes",
              "name": "paymasterAndData",
              "type": "bytes"
            },
            {
              "internalType": "bytes",
              "name": "signature",
              "type": "bytes"
            }
          ],
          "internalType": "struct PackedUserOperation",
          "name": "userOp",
          "type": "tuple"
        }
      ],
      "name": "getUserOpHash",
      "outputs": [
        {
          "internalType": "bytes32",
          "name": "",
          "type": "bytes32"
        }
      ],
      "stateMutability": "view",
      "type": "function"
    },
    {
      "inputs": [
        {
          "components": [
            {
              "components": [
                {
                  "internalType": "address",
                  "name": "sender",
                  "type": "address"
                },
                {
                  "internalType": "uint256",
                  "name": "nonce",
                  "type": "uint256"
                },
                {
                  "internalType": "bytes",
                  "name": "initCode",
                  "type": "bytes"
                },
                {
                  "internalType": "bytes",
                  "name": "callData",
                  "type": "bytes"
                },
                {
                  "internalType": "bytes32",
                  "name": "accountGasLimits",
                  "type": "bytes32"
                },
                {
                  "internalType": "uint256",
                  "name": "preVerificationGas",
                  "type": "uint256"
                },
                {
                  "internalType": "bytes32",
                  "name": "gasFees",
                  "type": "bytes32"
                },
                {
                  "internalType": "bytes",
                  "name": "paymasterAndData",
                  "type": "bytes"
                },
                {
                  "internalType": "bytes",
                  "name": "signature",
                  "type": "bytes"
                }
              ],
              "internalType": "struct PackedUserOperation[]",
              "name": "userOps",
              "type": "tuple[]"
            },
            {
              "internalType": "contract IAggregator",
              "name": "aggregator",
              "type": "address"
            },
            {
              "internalType": "bytes",
              "name": "signature",
              "type": "bytes"
            }
          ],
          "internalType": "struct IEntryPoint.UserOpsPerAggregator[]",
          "name": "opsPerAggregator",
          "type": "tuple[]"
        },
        {
          "internalType": "address payable",
          "name": "beneficiary",
          "type": "address"
        }
      ],
      "name": "handleAggregatedOps",
      "outputs": [],
      "stateMutability": "nonpayable",
      "type": "function"
    },
    {
      "inputs": [
        {
          "components": [
            {
              "internalType": "address",
              "name": "sender",
              "type": "address"
            },
            {
              "internalType": "uint256",
              "name": "nonce",
              "type": "uint256"
            },
            {
              "internalType": "bytes",
              "name": "initCode",
              "type": "bytes"
            },
            {
              "internalType": "bytes",
              "name": "callData",
              "type": "bytes"
            },
            {
              "internalType": "bytes32",
              "name": "accountGasLimits",
              "type": "bytes32"
            },
            {
              "internalType": "uint256",
              "name": "preVerificationGas",
              "type": "uint256"
            },
            {
              "internalType": "bytes32",
              "name": "gasFees",
              "type": "bytes32"
            },
            {
              "internalType": "bytes",
              "name": "paymasterAndData",
              "type": "bytes"
            },
            {
              "internalType": "bytes",
              "name": "signature",
              "type": "bytes"
            }
          ],
          "internalType": "struct PackedUserOperation[]",
          "name": "ops",
          "type": "tuple[]"
        },
        {
          "internalType": "address payable",
          "name": "beneficiary",
          "type": "address"
        }
      ],
      "name": "handleOps",
      "outputs": [],
      "stateMutability": "nonpayable",
      "type": "function"
    },
    {
      "inputs": [
        {
          "internalType": "uint192",
          "name": "key",
          "type": "uint192"
        }
      ],
      "name": "incrementNonce",
      "outputs": [],
      "stateMutability": "nonpayable",
      "type": "function"
    },
    {
      "inputs": [
        {
          "internalType": "bytes",
          "name": "callData",
          "type": "bytes"
        },
        {
          "components": [
            {
              "components": [
                {
                  "internalType": "address",
                  "name": "sender",
                  "type": "address"
                },
                {
                  "internalType": "uint256",
                  "name": "nonce",
                  "type": "uint256"
                },
                {
                  "internalType": "uint256",
                  "name": "verificationGasLimit",
                  "type": "uint256"
                },
                {
                  "internalType": "uint256",
                  "name": "callGasLimit",
                  "type": "uint256"
                },
                {
                  "internalType": "uint256",
                  "name": "paymasterVerificationGasLimit",
                  "type": "uint256"
                },
                {
                  "internalType": "uint256",
                  "name": "paymasterPostOpGasLimit",
                  "type": "uint256"
                },
                {
                  "internalType": "uint256",
                  "name": "preVerificationGas",
                  "type": "uint256"
                },
                {
                  "internalType": "address",
                  "name": "paymaster",
                  "type": "address"
                },
                {
                  "internalType": "uint256",
                  "name": "maxFeePerGas",
                  "type": "uint256"
                },
                {
                  "internalType": "uint256",
                  "name": "maxPriorityFeePerGas",
                  "type": "uint256"
                }
              ],
              "internalType": "struct EntryPoint.MemoryUserOp",
              "name": "mUserOp",
              "type": "tuple"
            },
            {
              "internalType": "bytes32",
              "name": "userOpHash",
              "type": "bytes32"
            },
            {
              "internalType": "uint256",
              "name": "prefund",
              "type": "uint256"
            },
            {
              "internalType": "uint256",
              "name": "contextOffset",
              "type": "uint256"
            },
            {
              "internalType": "uint256",
              "name": "preOpGas",
              "type": "uint256"
            }
          ],
          "internalType": "struct EntryPoint.UserOpInfo",
          "name": "opInfo",
          "type": "tuple"
        },
        {
          "internalType": "bytes",
          "name": "context",
          "type": "bytes"
        }
      ],
      "name": "innerHandleOp",
      "outputs": [
        {
          "internalType": "uint256",
          "name": "actualGasCost",
          "type": "uint256"
        }
      ],
      "stateMutability": "nonpayable",
      "type": "function"
    },
    {
      "inputs": [
        {
          "internalType": "address",
          "name": "",
          "type": "address"
        },
        {
          "internalType": "uint192",
          "name": "",
          "type": "uint192"
        }
      ],
      "name": "nonceSequenceNumber",
      "outputs": [
        {
          "internalType": "uint256",
          "name": "",
          "type": "uint256"
        }
      ],
      "stateMutability": "view",
      "type": "function"
    },
    {
      "inputs": [],
      "name": "senderCreator",
      "outputs": [
        {
          "internalType": "contract ISenderCreator",
          "name": "",
          "type": "address"
        }
      ],
      "stateMutability": "view",
      "type": "function"
    },
    {
      "inputs": [
        {
          "internalType": "bytes4",
          "name": "interfaceId",
          "type": "bytes4"
        }
      ],
      "name": "supportsInterface",
      "outputs": [
        {
          "internalType": "bool",
          "name": "",
          "type": "bool"
        }
      ],
      "stateMutability": "view",
      "type": "function"
    },
    {
      "inputs": [],
      "name": "unlockStake",
      "outputs": [],
      "stateMutability": "nonpayable",
      "type": "function"
    },
    {
      "inputs": [
        {
          "internalType": "address payable",
          "name": "withdrawAddress",
          "type": "address"
        }
      ],
      "name": "withdrawStake",
      "outputs": [],
      "stateMutability": "nonpayable",
      "type": "function"
    },
    {
      "inputs": [
        {
          "internalType": "address payable",
          "name": "withdrawAddress",
          "type": "address"
        },
        {
          "internalType": "uint256",
          "name": "withdrawAmount",
          "type": "uint256"
        }
      ],
      "name": "withdrawTo",
      "outputs": [],
      "stateMutability": "nonpayable",
      "type": "function"
    },
    {
      "stateMutability": "payable",
      "type": "receive"
    }
  ],
  "bytecode": "0x610180604052604051610011906101a7565b604051809103905ff08015801561002a573d5f5f3e3d5ffd5b506001600160a01b031661016052348015610043575f5ffd5b5060408051808201825260078152664552433433333760c81b602080830191909152825180840190935260018352603160f81b908301529061008682600261012f565b6101205261009581600361012f565b61014052815160208084019190912060e052815190820120610100524660a05261012160e05161010051604080517f8b73c3c69bb8fe3d512ecc4cf759cc79239f7b179b0ffacaa9a75d522b39400f60208201529081019290925260608201524660808201523060a08201525f9060c00160405160208183030381529060405280519060200120905090565b60805250503060c05261035e565b5f60208351101561014a5761014383610161565b905061015b565b81610155848261024c565b5060ff90505b92915050565b5f5f829050601f81511115610194578260405163305a27a960e01b815260040161018b9190610306565b60405180910390fd5b805161019f8261033b565b179392505050565b6105018061419c83390190565b634e487b7160e01b5f52604160045260245ffd5b600181811c908216806101dc57607f821691505b6020821081036101fa57634e487b7160e01b5f52602260045260245ffd5b50919050565b601f82111561024757805f5260205f20601f840160051c810160208510156102255750805b601f840160051c820191505b81811015610244575f8155600101610231565b50505b505050565b81516001600160401b03811115610265576102656101b4565b6102798161027384546101c8565b84610200565b6020601f8211600181146102ab575f83156102945750848201515b5f19600385901b1c1916600184901b178455610244565b5f84815260208120601f198516915b828110156102da57878501518255602094850194600190920191016102ba565b50848210156102f757868401515f19600387901b60f8161c191681555b50505050600190811b01905550565b602081525f82518060208401528060208501604085015e5f604082850101526040601f19601f83011684010191505092915050565b805160208083015191908110156101fa575f1960209190910360031b1b16919050565b60805160a05160c05160e05161010051610120516101405161016051613de36103b95f395f6109e301525f611dab01525f611d7e01525f6117c601525f61179e01525f6116f901525f61172301525f61174d0152613de35ff3fe60806040526004361061010a575f3560e01c806335567e1a1161009957806335567e1a1461028c5780635287ce12146102ea57806370a08231146103fa578063765e827f1461041957806384b0196e14610438578063850aaf621461045f5780639b249f691461047e578063b760faf91461049d578063bb9fe6bf146104b0578063c23a5cea146104c4578063dbed18e0146104e3575f5ffd5b806242dc531461011e57806301ffc9a7146101505780630396cb601461017f57806309ccb880146101925780630bd28e3b146101b357806313c65a6e146101d2578063154e58dc146101e65780631b2e01b814610218578063205c28781461024e57806322cdde4c1461026d575f5ffd5b3661011a5761011833610502565b005b5f5ffd5b348015610129575f5ffd5b5061013d610138366004613296565b610556565b6040519081526020015b60405180910390f35b34801561015b575f5ffd5b5061016f61016a366004613367565b6106e4565b6040519015158152602001610147565b61011861018d36600461338e565b61076b565b34801561019d575f5ffd5b506101a66109e1565b60405161014791906133b1565b3480156101be575f5ffd5b506101186101cd3660046133db565b610a05565b3480156101dd575f5ffd5b5061013d610a3b565b3480156101f1575f5ffd5b507f29a0bca4af4be3421398da00295e58e6d7de38cb492214754cb6a47507dd6f8e61013d565b348015610223575f5ffd5b5061013d6102323660046133f4565b600160209081525f928352604080842090915290825290205481565b348015610259575f5ffd5b50610118610268366004613427565b610a49565b348015610278575f5ffd5b5061013d610287366004613451565b610b88565b348015610297575f5ffd5b5061013d6102a63660046133f4565b6001600160a01b0382165f9081526001602090815260408083206001600160c01b038516845290915290819020549082901b67ffffffffffffffff19161792915050565b3480156102f5575f5ffd5b506103a4610304366004613488565b6040805160a0810182525f80825260208201819052918101829052606081018290526080810191909152506001600160a01b03165f9081526020818152604091829020825160a0810184528154815260019091015460ff811615159282019290925261010082046001600160701b031692810192909252600160781b810463ffffffff166060830152600160981b900465ffffffffffff16608082015290565b6040516101479190815181526020808301511515908201526040808301516001600160701b03169082015260608083015163ffffffff169082015260809182015165ffffffffffff169181019190915260a00190565b348015610405575f5ffd5b5061013d610414366004613488565b610bd0565b348015610424575f5ffd5b506101186104333660046134e3565b610bea565b348015610443575f5ffd5b5061044c610cf8565b6040516101479796959493929190613570565b34801561046a575f5ffd5b50610118610479366004613606565b610d3a565b348015610489575f5ffd5b50610118610498366004613656565b610db5565b6101186104ab366004613488565b610502565b3480156104bb575f5ffd5b50610118610e48565b3480156104cf575f5ffd5b506101186104de366004613488565b610f72565b3480156104ee575f5ffd5b506101186104fd3660046134e3565b611188565b5f61050d82346114b4565b9050816001600160a01b03167f2da466a7b24304f47e87fa2e1e5a81b9831ce54fec19055ce277ca2f39ba42c48260405161054a91815260200190565b60405180910390a25050565b5f5f5a90503330146105a95760405162461bcd60e51b81526020600482015260176024820152764141393220696e7465726e616c2063616c6c206f6e6c7960481b60448201526064015b60405180910390fd5b8451606081015160a082015181016127100160405a603f02816105ce576105ce613694565b0410156105e45763deaddead60e01b5f5260205ffd5b87515f9015610688575f6105fd845f01515f8c866114d9565b905080610686575f61060e60405190565b90505f61061c6108006114ef565b80519091501561067657855f01516001600160a01b03168b602001517f1c4fada7374c0a9ee8841fc38afe82932dc0f8e69012e927f061a8bae611a20188602001518460405161066d9291906136a8565b60405180910390a35b61067f82604052565b6001935050505b505b5f88608001515a86030190506106d6828a8a8a8080601f0160208091040260200160405190810160405280939291908181526020018383808284375f92019190915250879250611520915050565b9a9950505050505050505050565b5f6001600160e01b0319821663349869f760e11b148061071457506001600160e01b03198216631313998b60e31b145b8061072f57506001600160e01b0319821663cf28ef9760e01b145b8061074a57506001600160e01b03198216633e84f02160e01b145b8061076557506301ffc9a760e01b6001600160e01b03198316145b92915050565b335f90815260208190526040902063ffffffff82166107c95760405162461bcd60e51b815260206004820152601a6024820152796d757374207370656369667920756e7374616b652064656c617960301b60448201526064016105a0565b600181015463ffffffff600160781b9091048116908316101561082e5760405162461bcd60e51b815260206004820152601c60248201527f63616e6e6f7420646563726561736520756e7374616b652074696d650000000060448201526064016105a0565b60018101545f9061084e90349061010090046001600160701b03166136d4565b90505f81116108945760405162461bcd60e51b81526020600482015260126024820152711b9bc81cdd185ad9481cdc1958da599a595960721b60448201526064016105a0565b6001600160701b038111156108dc5760405162461bcd60e51b815260206004820152600e60248201526d7374616b65206f766572666c6f7760901b60448201526064016105a0565b6040805160a08101825283548152600160208083018281526001600160701b0386811685870190815263ffffffff8a8116606088018181525f60808a0181815233808352828a52918c90209a518b55965199909801805494519151965165ffffffffffff16600160981b0265ffffffffffff60981b1997909416600160781b0296909616600160781b600160c81b03199190951661010002610100600160781b0319991515999099166001600160781b031990941693909317979097179190911691909117179055835185815290810192909252917fa5ae833d0bb1dcd632d98a8b70973e8516812898e19bf27b70071ebc8dc52c01910160405180910390a2505050565b7f000000000000000000000000000000000000000000000000000000000000000090565b335f9081526001602090815260408083206001600160c01b03851684529091528120805491610a33836136e7565b919050555050565b5f610a446116ed565b905090565b335f908152602081905260409020805480831115610aa55760405162461bcd60e51b8152602060048201526019602482015278576974686472617720616d6f756e7420746f6f206c6172676560381b60448201526064016105a0565b610aaf83826136ff565b825560405133907fd1c19fbcd4551a5edfb66d43d2e337c04837afda3482b42bdf569a8fccdae5fb90610ae59087908790613712565b60405180910390a25f846001600160a01b0316846040515f6040518083038185875af1925050503d805f8114610b36576040519150601f19603f3d011682016040523d82523d5f602084013e610b3b565b606091505b5050905080610b815760405162461bcd60e51b81526020600482015260126024820152716661696c656420746f20776974686472617760701b60448201526064016105a0565b5050505050565b5f5f610b9383611816565b9050610bc9610ba0610a3b565b610baa85846118bc565b60405161190160f01b8152600281019290925260228201526042902090565b9392505050565b6001600160a01b03165f9081526020819052604090205490565b610bf26118d6565b815f816001600160401b03811115610c0c57610c0c6130c7565b604051908082528060200260200182016040528015610c4557816020015b610c32613040565b815260200190600190039081610c2a5790505b509050610c558585835f5f61191f565b506040515f907fbb47ee3e183a558b1a2ff0874b079f3fc5478b7454eacf2bfc5af2ff5878f972908290a15f5b83811015610cdd57610cd181888884818110610ca057610ca061372b565b9050602002810190610cb2919061373f565b858481518110610cc457610cc461372b565b60200260200101516119a2565b90910190600101610c82565b50610ce88482611c70565b505050610cf3611d60565b505050565b5f6060805f5f5f6060610d09611d77565b610d11611da4565b604080515f80825260208201909252600f60f81b9b939a50919850469750309650945092509050565b5f5f846001600160a01b03168484604051610d5692919061375e565b5f60405180830381855af49150503d805f8114610d8e576040519150601f19603f3d011682016040523d82523d5f602084013e610d93565b606091505b50915091508181604051632650415560e21b81526004016105a092919061376d565b5f610dbe6109e1565b6001600160a01b031663570e1a3684846040518363ffffffff1660e01b8152600401610deb9291906137af565b6020604051808303815f875af1158015610e07573d5f5f3e3d5ffd5b505050506040513d601f19601f82011682018060405250810190610e2b91906137c2565b905080604051633653dc0360e11b81526004016105a091906133b1565b335f90815260208190526040812060018101549091600160781b90910463ffffffff169003610ea65760405162461bcd60e51b815260206004820152600a6024820152691b9bdd081cdd185ad95960b21b60448201526064016105a0565b600181015460ff16610eee5760405162461bcd60e51b8152602060048201526011602482015270616c726561647920756e7374616b696e6760781b60448201526064016105a0565b60018101545f90610f0c90600160781b900463ffffffff16426137dd565b60018301805460ff65ffffffffffff60981b011916600160981b65ffffffffffff841690810260ff19169190911790915560405190815290915033907ffa9b3c14cc825c412c9ed81b3ba365a5b459439403f18829e572ed53a4180f0a9060200161054a565b335f908152602081905260409020600181015461010090046001600160701b031680610fd75760405162461bcd60e51b81526020600482015260146024820152734e6f207374616b6520746f20776974686472617760601b60448201526064016105a0565b6001820154600160981b900465ffffffffffff166110375760405162461bcd60e51b815260206004820152601d60248201527f6d7573742063616c6c20756e6c6f636b5374616b65282920666972737400000060448201526064016105a0565b600182015442600160981b90910465ffffffffffff1611156110995760405162461bcd60e51b815260206004820152601b60248201527a5374616b65207769746864726177616c206973206e6f742064756560281b60448201526064016105a0565b600182018054610100600160c81b031916905560405133907fb7c918e0e249f999e965cafeb6c664271b3f4317d296461500e71da39f0cbda3906110e09086908590613712565b60405180910390a25f836001600160a01b0316826040515f6040518083038185875af1925050503d805f8114611131576040519150601f19603f3d011682016040523d82523d5f602084013e611136565b606091505b50509050806111825760405162461bcd60e51b81526020600482015260186024820152776661696c656420746f207769746864726177207374616b6560401b60448201526064016105a0565b50505050565b6111906118d6565b815f805b828110156112b757368686838181106111af576111af61372b565b90506020028101906111c191906137fb565b9050365f6111cf838061380f565b90925090505f6111e56040850160208601613488565b9050806001600160a01b0381166001036112135760405163086a9f7560e41b81526004016105a091906133b1565b506001600160a01b038116156112a7576001600160a01b038116632dd8113384846112416040890189613854565b6040518563ffffffff1660e01b815260040161126094939291906139ae565b5f604051808303815f87803b158015611277575f5ffd5b505af1925050508015611288575060015b6112a7578060405163086a9f7560e41b81526004016105a091906133b1565b5093909301925050600101611194565b505f816001600160401b038111156112d1576112d16130c7565b60405190808252806020026020018201604052801561130a57816020015b6112f7613040565b8152602001906001900390816112ef5790505b5090505f805b84811015611384573688888381811061132b5761132b61372b565b905060200281019061133d91906137fb565b9050365f61134b838061380f565b90925090505f6113616040850160208601613488565b9050611370838389848a61191f565b909501945050600190920191506113109050565b506040517fbb47ee3e183a558b1a2ff0874b079f3fc5478b7454eacf2bfc5af2ff5878f972905f90a1505f80805b8581101561149c57368989838181106113cd576113cd61372b565b90506020028101906113df91906137fb565b90506113f16040820160208301613488565b6001600160a01b03167f575ff3acadd5ab348fe1855e217e0f3678f8d767d7494c9f9fefbee2e17cca4d60405160405180910390a2365f611432838061380f565b9092509050805f5b8181101561148b5761147c888585848181106114585761145861372b565b905060200281019061146a919061373f565b8b8b81518110610cc457610cc461372b565b6001988901989701960161143a565b5050600190930192506113b2915050565b506114a78682611c70565b5050505050610cf3611d60565b6001600160a01b0382165f908152602081905260409020805482019081905592915050565b5f5f5f845160208601878987f195945050505050565b60603d821561150357828111156115035750815b604051602082018101604052818152815f602083013e9392505050565b5f5f5a85519091505f908161153482611dd1565b90505f8260e0015190505f896080015188039050611556818560600151611df4565b90970196505f6001600160a01b0382166115735783519450611647565b8194505f895111156116475782880296505f5a905060028c600281111561159c5761159c613a39565b1461162e57826001600160a01b0316637c627b218660a001518e8d8c896040518663ffffffff1660e01b81526004016115d89493929190613a4d565b5f604051808303815f88803b1580156115ef575f5ffd5b5087f193505050508015611601575060015b61162e575f6116116108006114ef565b905080604051632b5e552f60e21b81526004016105a09190613a94565b5f5a82039050611642818760a00151611df4565b925050505b805a8703018801975082880296505f8a604001519050878110156116aa5760028c600281111561167957611679613a39565b0361169b5780975061168a8b611e14565b6116968b5f8a8c611e63565b6116de565b63deadaa5160e01b5f5260205ffd5b8781036116b787826114b4565b505f808e60028111156116cc576116cc613a39565b1490506116db8d828c8e611e63565b50505b50505050505050949350505050565b5f306001600160a01b037f00000000000000000000000000000000000000000000000000000000000000001614801561174557507f000000000000000000000000000000000000000000000000000000000000000046145b1561176f57507f000000000000000000000000000000000000000000000000000000000000000090565b610a44604080517f8b73c3c69bb8fe3d512ecc4cf759cc79239f7b179b0ffacaa9a75d522b39400f60208201527f0000000000000000000000000000000000000000000000000000000000000000918101919091527f000000000000000000000000000000000000000000000000000000000000000060608201524660808201523060a08201525f9060c00160405160208183030381529060405280519060200120905090565b5f36816118266040850185613854565b915091506118348282611ede565b61184157505f9392505050565b5f6118576118526020870187613488565b611f07565b90506014821161189c576040516001600160601b0319606083901b1660208201526034015b604051602081830303815290604052805190602001209350505050919050565b806118aa8360148187613aa6565b60405160200161187c93929190613acd565b5f6118c78383611fcb565b80519060200120905092915050565b5f516020613d8e5f395f51905f525c1561190357604051633ee5aeb560e01b815260040160405180910390fd5b61191d60015f516020613d8e5f395f51905f525b906120c4565b565b835f5b81811015611998575f858285018151811061193f5761193f61372b565b602002602001015190505f5f61197b8487018b8b878181106119635761196361372b565b9050602002810190611975919061373f565b856120cb565b9150915061198d84870183838a6122dc565b505050600101611922565b5095945050505050565b5f5f5a90505f6119b3846060015190565b90505f5f6119c060405190565b9050365f6119d160608a018a613854565b9150915060605f8260038111156119e757843591505b506372288ed160e01b6001600160e01b0319821601611a94575f8b8b60200151604051602401611a18929190613af4565b60408051601f198184030181529181526020820180516001600160e01b0316638dd7712f60e01b1790525190915030906242dc5390611a5f9084908f908d90602401613bb5565b604051602081830303815290604052915060e01b6020820180516001600160e01b038381831617835250505050925050611ae9565b306001600160a01b03166242dc5385858d8b604051602401611ab99493929190613be9565b604051602081830303815290604052915060e01b6020820180516001600160e01b03838183161783525050505091505b60205f8351602085015f305af195505f519850611b0585604052565b505050505080611c66575f3d80602003611b235760205f5f3e5f5191505b5063deaddead60e01b8103611b765787604051631101335b60e11b81526004016105a0918152604060208201819052600f908201526e41413935206f7574206f662067617360881b606082015260800190565b63deadaa5160e01b8103611bc5575f86608001515a611b9590876136ff565b611b9f91906136d4565b6040880151909150611bb088611e14565b611bbc885f8385611e63565b9550611c649050565b5f611bcf60405190565b875180516020808b01519201519293506001600160a01b0316917ff62676f440ff169a3a9afdbf812e89e7f95975ee8e5c31214ffdef631c5f479290611c166108006114ef565b604051611c249291906136a8565b60405180910390a3611c3581604052565b5f87608001515a611c4690886136ff565b611c5091906136d4565b9050611c5f6002898784611520565b965050505b505b5050509392505050565b6001600160a01b038216611cc15760405162461bcd60e51b81526020600482015260186024820152774141393020696e76616c69642062656e656669636961727960401b60448201526064016105a0565b5f826001600160a01b0316826040515f6040518083038185875af1925050503d805f8114611d0a576040519150601f19603f3d011682016040523d82523d5f602084013e611d0f565b606091505b5050905080610cf35760405162461bcd60e51b815260206004820152601f60248201527f41413931206661696c65642073656e6420746f2062656e65666963696172790060448201526064016105a0565b61191d5f5f516020613d8e5f395f51905f52611917565b6060610a447f00000000000000000000000000000000000000000000000000000000000000006002612470565b6060610a447f00000000000000000000000000000000000000000000000000000000000000006003612470565b6101008101516101208201515f9190611dec82488301612519565b949350505050565b5f619c4083018211611e0757505f610765565b506064919003600a020490565b80518051602080840151928101516040519081526001600160a01b0390921692917f67b4fa9642f42120bf031f3051d1824b0fe25627945b27b8a6a65d5761d5482e910160405180910390a350565b835160e081015181516020808801519301516040516001600160a01b039384169492909316927f49628fd1471006c1482da88028e9ce4dbb080b815c9b0344d39e5a8e6ec1419f91611ed09189908990899093845291151560208401526040830152606082015260800190565b60405180910390a450505050565b5f6002821015611eef57505f610765565b5050613b8160f11b90356001600160601b0319161490565b5f5f60175f5f853c505f516001600160e81b0319811661ef0160f01b14611fb9575f836001600160a01b03163b11611f765760405162461bcd60e51b815260206004820152601260248201527173656e64657220686173206e6f20636f646560701b60448201526064016105a0565b60405162461bcd60e51b81526020600482015260186024820152776e6f7420616e204549502d373730322064656c656761746560401b60448201526064016105a0565b60481c6001600160a01b031692915050565b60605f611fdb6020850185613488565b905060208401355f84810361200457611fff611ffa6040880188613854565b61252e565b612006565b845b90505f612019611ffa6060890189613854565b9050608087013560a088013560c08901355f61203b611ffa60e08d018d613854565b604080517f29a0bca4af4be3421398da00295e58e6d7de38cb492214754cb6a47507dd6f8e60208201526001600160a01b039a909a168a82015260608a019890985260808901969096525060a087019390935260c086019190915260e0850152610100840152610120808401919091528151808403909101815261014090920190529392505050565b80825d5050565b5f5f5f5a84519091506120de8682612540565b5f6120e860405190565b90506120f387610b88565b602087015261210181604052565b604082015161012083015161010084015160a08501516080860151606087015160c088015186171717171717896001600160781b038211156121885760408051631101335b60e11b815260048101929092526024820152601860448201527741413934206761732076616c756573206f766572666c6f7760401b60648201526084016105a0565b505f6121b78560c081015160a08201516080830151606084015160408501516101009095015194010101010290565b60408a0181905290506121cc8b8b8b84612684565b97506121df855f01518660200151612759565b8b906122325760408051631101335b60e11b815260048101929092526024820152601a6044820152794141323520696e76616c6964206163636f756e74206e6f6e636560301b60648201526084016105a0565b50825a8703111561228f578a604051631101335b60e11b81526004016105a0918152604060208201819052601e908201527f41413236206f76657220766572696669636174696f6e4761734c696d69740000606082015260800190565b60e08501516060906001600160a01b0316156122b5576122b08c8c8c6127a5565b985090505b8060608b015260a08b01355a8803018a608001818152505050505050505050935093915050565b5f5f6122e7856128a9565b91509150816001600160a01b0316836001600160a01b03161461234d5785604051631101335b60e11b81526004016105a09181526040602082018190526014908201527320a0991a1039b4b3b730ba3ab9329032b93937b960611b606082015260800190565b801561239f5785604051631101335b60e11b81526004016105a091815260406020820181905260179082015276414132322065787069726564206f72206e6f742064756560481b606082015260800190565b5f6123a9856128a9565b925090506001600160a01b038116156124055786604051631101335b60e11b81526004016105a09181526040602082018190526014908201527320a0999a1039b4b3b730ba3ab9329032b93937b960611b606082015260800190565b81156124675786604051631101335b60e11b81526004016105a09181526040602082018190526021908201527f41413332207061796d61737465722065787069726564206f72206e6f742064756060820152606560f81b608082015260a00190565b50505050505050565b606060ff831461248a57612483836128f9565b9050610765565b81805461249690613c1e565b80601f01602080910402602001604051908101604052809291908181526020018280546124c290613c1e565b801561250d5780601f106124e45761010080835404028352916020019161250d565b820191905f5260205f20905b8154815290600101906020018083116124f057829003601f168201915b50505050509050610765565b5f8183106125275781610bc9565b5090919050565b5f604051828085833790209392505050565b61254d6020830183613488565b6001600160a01b031681526020808301359082015261256f6080830135612936565b6060830152604082015260a082013560c08083019190915261259390830135612936565b610100830152610120820152365f6125ae60e0850185613854565b9092509050801561118257603481101561260a5760405162461bcd60e51b815260206004820152601d60248201527f4141393320696e76616c6964207061796d6173746572416e644461746100000060448201526064016105a0565b5f6126158383612955565b60a0870152608086015290506001600160a01b0381166126705760405162461bcd60e51b815260206004820152601660248201527520a09c9c1034b73b30b634b2103830bcb6b0b9ba32b960511b60448201526064016105a0565b6001600160a01b031660e084015250505050565b815180515f91906126a2878661269d60408a018a613854565b6129bc565b60e08201515f6001600160a01b0382166126d7575f6126c084610bd0565b90508681116126d1578087036126d3565b5f5b9150505b6126e389898984612d4a565b94506001600160a01b03821661274d576126fd8387612e68565b61274d5788604051631101335b60e11b81526004016105a09181526040602082018190526017908201527610504c8c48191a591b89dd081c185e481c1c99599d5b99604a1b606082015260800190565b50505050949350505050565b6001600160a01b0382165f90815260016020908152604080832084821c80855292528220805484916001600160401b038316919085612797836136e7565b909155501495945050505050565b60605f5f5a845160e0810151604087015192935090916127c58282612e68565b61281b5788604051631101335b60e11b81526004016105a0918152604060208201819052601e908201527f41413331207061796d6173746572206465706f73697420746f6f206c6f770000606082015260800190565b608083015161282b8a8a8a612ea1565b9097509550805a8603111561289c5789604051631101335b60e11b81526004016105a09181526040602082018190526027908201527f41413336206f766572207061796d6173746572566572696669636174696f6e47606082015266185cd31a5b5a5d60ca1b608082015260a00190565b5050505050935093915050565b5f5f825f036128bc57505f928392509050565b5f6128c684612faa565b9050806040015165ffffffffffff164211806128ee5750806020015165ffffffffffff164211155b905194909350915050565b60605f61290583613019565b6040805160208082528183019092529192505f91906020820181803683375050509182525060208101929092525090565b5f5f6129428360801c90565b6001600160801b03841691509150915091565b5f80806129656014828688613aa6565b61296e91613c56565b60601c61297f602460148789613aa6565b61298891613c8e565b60801c61299960346024888a613aa6565b6129a291613c8e565b9194506001600160801b0316925060801c90509250925092565b8015611182578251516129cf8383611ede565b15612a5f576014821115612a59576129e56109e1565b8451604001516001600160a01b03919091169063c09ad0d99083612a0c866014818a613aa6565b6040518563ffffffff1660e01b8152600401612a2a93929190613cc4565b5f604051808303815f88803b158015612a41575f5ffd5b5087f1158015612a53573d5f5f3e3d5ffd5b50505050505b50611182565b6001600160a01b0381163b15612ac15784604051631101335b60e11b81526004016105a0918152604060208201819052601f908201527f414131302073656e64657220616c726561647920636f6e737472756374656400606082015260800190565b6014821015612b165784604051631101335b60e11b81526004016105a09181526040602082018190526017908201527610504e4e481a5b9a5d10dbd919481d1bdbc81cdb585b1b604a1b606082015260800190565b5f612b1f6109e1565b6001600160a01b031663570e1a36865f01516040015186866040518463ffffffff1660e01b8152600401612b549291906137af565b6020604051808303815f8887f1158015612b70573d5f5f3e3d5ffd5b50505050506040513d601f19601f82011682018060405250810190612b9591906137c2565b90506001600160a01b038116612bf55785604051631101335b60e11b81526004016105a0918152604060208201819052601b908201527a4141313320696e6974436f6465206661696c6564206f72204f4f4760281b606082015260800190565b816001600160a01b0316816001600160a01b031614612c5f5785604051631101335b60e11b81526004016105a091815260406020808301829052908201527f4141313420696e6974436f6465206d7573742072657475726e2073656e646572606082015260800190565b806001600160a01b03163b5f03612cc15785604051631101335b60e11b81526004016105a091815260406020808301829052908201527f4141313520696e6974436f6465206d757374206372656174652073656e646572606082015260800190565b5f612ccf6014828688613aa6565b612cd891613c56565b60601c9050826001600160a01b031686602001517fd51a9c61267aa6196961883ecf5ff2da6619c37dac0fa92122513fb32c032d2d83895f015160e00151604051612d399291906001600160a01b0392831681529116602082015260400190565b60405180910390a350505050505050565b8151604081015190515f91908280612d6160405190565b90505f88886020015188604051602401612d7d93929190613cf1565b60408051601f19818403018152919052602080820180516001600160e01b03166306608bdf60e21b178152825192935090915f9182888af192505f51955060203d14612dc7575f92505b612dd082604052565b505080612e5d57816001600160a01b03163b5f03612e365787604051631101335b60e11b81526004016105a09181526040602082018190526019908201527810504c8c081858d8dbdd5b9d081b9bdd0819195c1b1bde5959603a1b606082015260800190565b87612e426108006114ef565b6040516365c8fd4d60e01b81526004016105a0929190613d15565b505050949350505050565b6001600160a01b0382165f908152602081905260408120805483811015612e93575f92505050610765565b839003905550600192915050565b60605f5f612eae60405190565b90505f8585602001518660400151604051602401612ece93929190613cf1565b60408051601f198184030181529190526020810180516001600160e01b03166314add44b60e21b178152865160e08101516080909101518351939450909290915f9182918291829182918291829190828b8bf194503d9050805f8a3e6020890151995088519250606081039150604089019a508a519350841580612f53575082604014155b80612f6057508184601f01105b15612f8c578d612f716108006114ef565b6040516365c8fd4d60e01b81526004016105a0929190613d51565b601f8101601f19168901604052505050505050505050935093915050565b604080516060810182525f80825260208201819052918101919091528160a081901c65ffffffffffff81165f03612fe4575065ffffffffffff5b604080516060810182526001600160a01b03909316835260d09490941c602083015265ffffffffffff16928101929092525090565b5f60ff8216601f81111561076557604051632cd44ac360e21b815260040160405180910390fd5b6040518060a001604052806130a96040518061014001604052805f6001600160a01b031681526020015f81526020015f81526020015f81526020015f81526020015f81526020015f81526020015f6001600160a01b031681526020015f81526020015f81525090565b81526020015f81526020015f81526020015f81526020015f81525090565b634e487b7160e01b5f52604160045260245ffd5b60405160a081016001600160401b03811182821017156130fd576130fd6130c7565b60405290565b60405161014081016001600160401b03811182821017156130fd576130fd6130c7565b604051601f8201601f191681016001600160401b038111828210171561314e5761314e6130c7565b604052919050565b6001600160a01b038116811461316a575f5ffd5b50565b803561317881613156565b919050565b5f8183036101c081121561318f575f5ffd5b6131976130db565b91506101408112156131a7575f5ffd5b506131b0613103565b6131b98361316d565b81526020838101359082015260408084013590820152606080840135908201526080808401359082015260a0808401359082015260c0808401359082015261320360e0840161316d565b60e08201526101008381013590820152610120808401359082015281526101408201356020820152610160820135604082015261018082013560608201526101a0909101356080820152919050565b5f5f83601f840112613262575f5ffd5b5081356001600160401b03811115613278575f5ffd5b60208301915083602082850101111561328f575f5ffd5b9250929050565b5f5f5f5f61020085870312156132aa575f5ffd5b84356001600160401b038111156132bf575f5ffd5b8501601f810187136132cf575f5ffd5b80356001600160401b038111156132e8576132e86130c7565b6132fb601f8201601f1916602001613126565b81815288602083850101111561330f575f5ffd5b816020840160208301375f60208383010152809650505050613334866020870161317d565b92506101e08501356001600160401b0381111561334f575f5ffd5b61335b87828801613252565b95989497509550505050565b5f60208284031215613377575f5ffd5b81356001600160e01b031981168114610bc9575f5ffd5b5f6020828403121561339e575f5ffd5b813563ffffffff81168114610bc9575f5ffd5b6001600160a01b0391909116815260200190565b80356001600160c01b0381168114613178575f5ffd5b5f602082840312156133eb575f5ffd5b610bc9826133c5565b5f5f60408385031215613405575f5ffd5b823561341081613156565b915061341e602084016133c5565b90509250929050565b5f5f60408385031215613438575f5ffd5b823561344381613156565b946020939093013593505050565b5f60208284031215613461575f5ffd5b81356001600160401b03811115613476575f5ffd5b82016101208185031215610bc9575f5ffd5b5f60208284031215613498575f5ffd5b8135610bc981613156565b5f5f83601f8401126134b3575f5ffd5b5081356001600160401b038111156134c9575f5ffd5b6020830191508360208260051b850101111561328f575f5ffd5b5f5f5f604084860312156134f5575f5ffd5b83356001600160401b0381111561350a575f5ffd5b613516868287016134a3565b909450925050602084013561352a81613156565b809150509250925092565b5f81518084528060208401602086015e5f602082860101526020601f19601f83011685010191505092915050565b6001600160a01b03169052565b60ff60f81b8816815260e060208201525f61358e60e0830189613535565b82810360408401526135a08189613535565b606084018890526001600160a01b038716608085015260a0840186905283810360c0850152845180825260208087019350909101905f5b818110156135f55783518352602093840193909201916001016135d7565b50909b9a5050505050505050505050565b5f5f5f60408486031215613618575f5ffd5b833561362381613156565b925060208401356001600160401b0381111561363d575f5ffd5b61364986828701613252565b9497909650939450505050565b5f5f60208385031215613667575f5ffd5b82356001600160401b0381111561367c575f5ffd5b61368885828601613252565b90969095509350505050565b634e487b7160e01b5f52601260045260245ffd5b828152604060208201525f611dec6040830184613535565b634e487b7160e01b5f52601160045260245ffd5b80820180821115610765576107656136c0565b5f600182016136f8576136f86136c0565b5060010190565b81810381811115610765576107656136c0565b6001600160a01b03929092168252602082015260400190565b634e487b7160e01b5f52603260045260245ffd5b5f823561011e19833603018112613754575f5ffd5b9190910192915050565b818382375f9101908152919050565b8215158152604060208201525f611dec6040830184613535565b81835281816020850137505f828201602090810191909152601f909101601f19169091010190565b602081525f611dec602083018486613787565b5f602082840312156137d2575f5ffd5b8151610bc981613156565b65ffffffffffff8181168382160190811115610765576107656136c0565b5f8235605e19833603018112613754575f5ffd5b5f5f8335601e19843603018112613824575f5ffd5b8301803591506001600160401b0382111561383d575f5ffd5b6020019150600581901b360382131561328f575f5ffd5b5f5f8335601e19843603018112613869575f5ffd5b8301803591506001600160401b03821115613882575f5ffd5b60200191503681900382131561328f575f5ffd5b5f5f8335601e198436030181126138ab575f5ffd5b83016020810192503590506001600160401b038111156138c9575f5ffd5b80360382131561328f575f5ffd5b6138e9826138e48361316d565b613563565b602081810135908301525f6139016040830183613896565b610120604086015261391861012086018284613787565b9150506139286060840184613896565b858303606087015261393b838284613787565b6080868101359088015260a0808701359088015260c08087013590880152925061396b91505060e0840184613896565b85830360e087015261397e838284613787565b92505050613990610100840184613896565b8583036101008701526139a4838284613787565b9695505050505050565b604080825281018490525f6060600586901b83018101908301878361011e1936839003015b89821015613a1757868503605f1901845282358181126139f1575f5ffd5b6139fd868d83016138d7565b9550506020830192506020840193506001820191506139d3565b505050508281036020840152613a2e818587613787565b979650505050505050565b634e487b7160e01b5f52602160045260245ffd5b5f60038610613a6a57634e487b7160e01b5f52602160045260245ffd5b85825260806020830152613a816080830186613535565b6040830194909452506060015292915050565b602081525f610bc96020830184613535565b5f5f85851115613ab4575f5ffd5b83861115613ac0575f5ffd5b5050820193919092039150565b606084901b6001600160601b0319168152818360148301375f910160140190815292915050565b604081525f613b0660408301856138d7565b90508260208301529392505050565b8051613b22838251613563565b6020810151602084015260408101516040840152606081015160608401526080810151608084015260a081015160a084015260c081015160c084015260e0810151613b7060e0850182613563565b5061010081810151908401526101209081015190830152602081015161014083015260408101516101608301526060810151610180830152608001516101a090910152565b61020081525f613bc9610200830186613535565b613bd66020840186613b15565b8281036101e08401526139a48185613535565b61020081525f613bfe61020083018688613787565b613c0b6020840186613b15565b8281036101e0840152613a2e8185613535565b600181811c90821680613c3257607f821691505b602082108103613c5057634e487b7160e01b5f52602260045260245ffd5b50919050565b80356001600160601b03198116906014841015613c87576001600160601b0319601485900360031b81901b82161691505b5092915050565b80356001600160801b03198116906010841015613c87576001600160801b031960109490940360031b84901b1690921692915050565b6001600160a01b03841681526040602082018190525f90613ce89083018486613787565b95945050505050565b606081525f613d0360608301866138d7565b60208301949094525060400152919050565b82815260606020820152600d60608201526c10504c8cc81c995d995c9d1959609a1b608082015260a060408201525f611dec60a0830184613535565b82815260606020820152600d60608201526c10504cccc81c995d995c9d1959609a1b608082015260a060408201525f611dec60a083018461353556fe9b779b17422d0df92223018b32b4d1fa46e071723d6817e2486d003becc55f00a2646970667358221220760b88cf97012d84291f27b71d64965bb91f2a33c4988ad1991b52028eb43a6a64736f6c634300081c003360a0604052348015600e575f5ffd5b50336080526080516104ca6100375f395f818160770152818160ba015261019001526104ca5ff3fe608060405234801561000f575f5ffd5b506004361061003f575f3560e01c8063570e1a3614610043578063b0d691fe14610072578063c09ad0d914610099575b5f5ffd5b610056610051366004610242565b6100ae565b6040516001600160a01b03909116815260200160405180910390f35b6100567f000000000000000000000000000000000000000000000000000000000000000081565b6100ac6100a73660046102c2565b610185565b005b5f336001600160a01b037f000000000000000000000000000000000000000000000000000000000000000016146101005760405162461bcd60e51b81526004016100f790610390565b60405180910390fd5b5f61010e60148285876103c5565b610117916103ec565b60601c90505f61012a84601481886103c5565b8080601f0160208091040260200160405190810160405280939291908181526020018383808284375f92018290525084519495509360209350849250905082850182875af19050801561017c575f5193505b50505092915050565b336001600160a01b037f000000000000000000000000000000000000000000000000000000000000000016146101cd5760405162461bcd60e51b81526004016100f790610390565b5f5f5f8351602085015f875af190508061020c575f6101ed610800610211565b90505f816040516365c8fd4d60e01b81526004016100f7929190610424565b505050565b60603d821561022557828111156102255750815b604051602082018101604052818152815f602083013e9392505050565b5f5f60208385031215610253575f5ffd5b82356001600160401b03811115610268575f5ffd5b8301601f81018513610278575f5ffd5b80356001600160401b0381111561028d575f5ffd5b85602082840101111561029e575f5ffd5b6020919091019590945092505050565b634e487b7160e01b5f52604160045260245ffd5b5f5f604083850312156102d3575f5ffd5b82356001600160a01b03811681146102e9575f5ffd5b915060208301356001600160401b03811115610303575f5ffd5b8301601f81018513610313575f5ffd5b80356001600160401b0381111561032c5761032c6102ae565b604051601f8201601f19908116603f011681016001600160401b038111828210171561035a5761035a6102ae565b604052818152828201602001871015610371575f5ffd5b816020840160208301375f602083830101528093505050509250929050565b6020808252818101527f414139372073686f756c642063616c6c2066726f6d20456e747279506f696e74604082015260600190565b5f5f858511156103d3575f5ffd5b838611156103df575f5ffd5b5050820193919092039150565b80356001600160601b0319811690601484101561041d576001600160601b0319601485900360031b81901b82161691505b5092915050565b82815260606020820152601f60608201527f4141313320454950373730322073656e64657220696e6974206661696c656400608082015260a060408201525f82518060a0840152806020850160c085015e5f60c0828501015260c0601f19601f830116840101915050939250505056fea26469706673582212208686f5490393e4543115f880163d4f3283a52e82b66e2a4ddd2840a34f36d5e364736f6c634300081c0033",
  "linkReferences": {},
  "deployedLinkReferences": {}
}